{
  "contractName": "StocksContract",
  "abi": [
    {
      "inputs": [],
      "stateMutability": "nonpayable",
      "type": "constructor"
    },
    {
      "inputs": [],
      "name": "nextStockId",
      "outputs": [
        {
          "internalType": "uint256",
          "name": "",
          "type": "uint256"
        }
      ],
      "stateMutability": "view",
      "type": "function",
      "constant": true
    },
    {
      "inputs": [
        {
          "internalType": "uint256",
          "name": "",
          "type": "uint256"
        },
        {
          "internalType": "uint256",
          "name": "",
          "type": "uint256"
        }
      ],
      "name": "stockOwners",
      "outputs": [
        {
          "internalType": "uint256",
          "name": "",
          "type": "uint256"
        }
      ],
      "stateMutability": "view",
      "type": "function",
      "constant": true
    },
    {
      "inputs": [
        {
          "internalType": "uint256",
          "name": "",
          "type": "uint256"
        }
      ],
      "name": "stocks",
      "outputs": [
        {
          "internalType": "uint256",
          "name": "id",
          "type": "uint256"
        },
        {
          "internalType": "string",
          "name": "symbol",
          "type": "string"
        },
        {
          "internalType": "string",
          "name": "name",
          "type": "string"
        },
        {
          "internalType": "uint256",
          "name": "price",
          "type": "uint256"
        },
        {
          "internalType": "bool",
          "name": "isAvailable",
          "type": "bool"
        },
        {
          "internalType": "string",
          "name": "eventType",
          "type": "string"
        },
        {
          "internalType": "uint256",
          "name": "date",
          "type": "uint256"
        }
      ],
      "stateMutability": "view",
      "type": "function",
      "constant": true
    },
    {
      "inputs": [
        {
          "internalType": "string",
          "name": "_symbol",
          "type": "string"
        },
        {
          "internalType": "string",
          "name": "_name",
          "type": "string"
        },
        {
          "internalType": "string",
          "name": "_eventType",
          "type": "string"
        },
        {
          "internalType": "uint256",
          "name": "_price",
          "type": "uint256"
        }
      ],
      "name": "createStock",
      "outputs": [
        {
          "internalType": "uint256",
          "name": "",
          "type": "uint256"
        }
      ],
      "stateMutability": "nonpayable",
      "type": "function"
    },
    {
      "inputs": [
        {
          "internalType": "uint256",
          "name": "_stockId",
          "type": "uint256"
        },
        {
          "internalType": "uint256[]",
          "name": "_ownerIds",
          "type": "uint256[]"
        }
      ],
      "name": "updateStockOwners",
      "outputs": [
        {
          "internalType": "bool",
          "name": "",
          "type": "bool"
        }
      ],
      "stateMutability": "nonpayable",
      "type": "function"
    },
    {
      "inputs": [
        {
          "internalType": "uint256",
          "name": "_stockId",
          "type": "uint256"
        }
      ],
      "name": "getStock",
      "outputs": [
        {
          "internalType": "uint256",
          "name": "",
          "type": "uint256"
        },
        {
          "internalType": "string",
          "name": "",
          "type": "string"
        },
        {
          "internalType": "string",
          "name": "",
          "type": "string"
        },
        {
          "internalType": "uint256",
          "name": "",
          "type": "uint256"
        },
        {
          "internalType": "bool",
          "name": "",
          "type": "bool"
        },
        {
          "internalType": "string",
          "name": "",
          "type": "string"
        },
        {
          "internalType": "uint256",
          "name": "",
          "type": "uint256"
        }
      ],
      "stateMutability": "view",
      "type": "function",
      "constant": true
    }
  ],
  "bytecode": "0x608060405234801561001057600080fd5b5060008081905550610e5a806100276000396000f3fe608060405234801561001057600080fd5b50600436106100625760003560e01c8063226b876c146100675780633a43d9c51461009d5780633ab7d09a146100cd57806397054750146101035780639cfe764614610133578063be7d7dcc14610151575b600080fd5b610081600480360381019061007c91906109f5565b610181565b6040516100949796959493929190610b3b565b60405180910390f35b6100b760048036038101906100b2919061094a565b610368565b6040516100c49190610b20565b60405180910390f35b6100e760048036038101906100e291906109f5565b610483565b6040516100fa9796959493929190610b3b565b60405180910390f35b61011d60048036038101906101189190610a72565b6106dc565b60405161012a9190610b20565b60405180910390f35b61013b61070d565b6040516101489190610b20565b60405180910390f35b61016b60048036038101906101669190610a1e565b610713565b6040516101789190610b05565b60405180910390f35b60016020528060005260406000206000915090508060000154908060010180546101aa90610cf4565b80601f01602080910402602001604051908101604052809291908181526020018280546101d690610cf4565b80156102235780601f106101f857610100808354040283529160200191610223565b820191906000526020600020905b81548152906001019060200180831161020657829003601f168201915b50505050509080600201805461023890610cf4565b80601f016020809104026020016040519081016040528092919081815260200182805461026490610cf4565b80156102b15780601f10610286576101008083540402835291602001916102b1565b820191906000526020600020905b81548152906001019060200180831161029457829003601f168201915b5050505050908060030154908060040160009054906101000a900460ff16908060050180546102df90610cf4565b80601f016020809104026020016040519081016040528092919081815260200182805461030b90610cf4565b80156103585780601f1061032d57610100808354040283529160200191610358565b820191906000526020600020905b81548152906001019060200180831161033b57829003601f168201915b5050505050908060060154905087565b6000806040518060e0016040528060005481526020018781526020018681526020018481526020016001151581526020018581526020014281525090508060016000805481526020019081526020016000206000820151816000015560208201518160010190805190602001906103e0929190610747565b5060408201518160020190805190602001906103fd929190610747565b506060820151816003015560808201518160040160006101000a81548160ff02191690831515021790555060a0820151816005019080519060200190610444929190610747565b5060c0820151816006015590505060008081548092919061046490610d26565b919050555060016000546104789190610c68565b915050949350505050565b60006060806000806060600080600160008a81526020019081526020016000206040518060e0016040529081600082015481526020016001820180546104c890610cf4565b80601f01602080910402602001604051908101604052809291908181526020018280546104f490610cf4565b80156105415780601f1061051657610100808354040283529160200191610541565b820191906000526020600020905b81548152906001019060200180831161052457829003601f168201915b5050505050815260200160028201805461055a90610cf4565b80601f016020809104026020016040519081016040528092919081815260200182805461058690610cf4565b80156105d35780601f106105a8576101008083540402835291602001916105d3565b820191906000526020600020905b8154815290600101906020018083116105b657829003601f168201915b50505050508152602001600382015481526020016004820160009054906101000a900460ff1615151515815260200160058201805461061190610cf4565b80601f016020809104026020016040519081016040528092919081815260200182805461063d90610cf4565b801561068a5780601f1061065f5761010080835404028352916020019161068a565b820191906000526020600020905b81548152906001019060200180831161066d57829003601f168201915b505050505081526020016006820154815250509050806000015181602001518260400151836060015184608001518560a001518660c00151975097509750975097509750975050919395979092949650565b600260205281600052604060002081815481106106f857600080fd5b90600052602060002001600091509150505481565b60005481565b60008160026000858152602001908152602001600020908051906020019061073c9291906107cd565b506001905092915050565b82805461075390610cf4565b90600052602060002090601f01602090048101928261077557600085556107bc565b82601f1061078e57805160ff19168380011785556107bc565b828001600101855582156107bc579182015b828111156107bb5782518255916020019190600101906107a0565b5b5090506107c9919061081a565b5090565b828054828255906000526020600020908101928215610809579160200282015b828111156108085782518255916020019190600101906107ed565b5b509050610816919061081a565b5090565b5b8082111561083357600081600090555060010161081b565b5090565b600061084a61084584610bf0565b610bbf565b9050808382526020820190508285602086028201111561086957600080fd5b60005b85811015610899578161087f8882610935565b84526020840193506020830192505060018101905061086c565b5050509392505050565b60006108b66108b184610c1c565b610bbf565b9050828152602081018484840111156108ce57600080fd5b6108d9848285610cb2565b509392505050565b600082601f8301126108f257600080fd5b8135610902848260208601610837565b91505092915050565b600082601f83011261091c57600080fd5b813561092c8482602086016108a3565b91505092915050565b60008135905061094481610e0d565b92915050565b6000806000806080858703121561096057600080fd5b600085013567ffffffffffffffff81111561097a57600080fd5b6109868782880161090b565b945050602085013567ffffffffffffffff8111156109a357600080fd5b6109af8782880161090b565b935050604085013567ffffffffffffffff8111156109cc57600080fd5b6109d88782880161090b565b92505060606109e987828801610935565b91505092959194509250565b600060208284031215610a0757600080fd5b6000610a1584828501610935565b91505092915050565b60008060408385031215610a3157600080fd5b6000610a3f85828601610935565b925050602083013567ffffffffffffffff811115610a5c57600080fd5b610a68858286016108e1565b9150509250929050565b60008060408385031215610a8557600080fd5b6000610a9385828601610935565b9250506020610aa485828601610935565b9150509250929050565b610ab781610c9c565b82525050565b6000610ac882610c4c565b610ad28185610c57565b9350610ae2818560208601610cc1565b610aeb81610dfc565b840191505092915050565b610aff81610ca8565b82525050565b6000602082019050610b1a6000830184610aae565b92915050565b6000602082019050610b356000830184610af6565b92915050565b600060e082019050610b50600083018a610af6565b8181036020830152610b628189610abd565b90508181036040830152610b768188610abd565b9050610b856060830187610af6565b610b926080830186610aae565b81810360a0830152610ba48185610abd565b9050610bb360c0830184610af6565b98975050505050505050565b6000604051905081810181811067ffffffffffffffff82111715610be657610be5610dcd565b5b8060405250919050565b600067ffffffffffffffff821115610c0b57610c0a610dcd565b5b602082029050602081019050919050565b600067ffffffffffffffff821115610c3757610c36610dcd565b5b601f19601f8301169050602081019050919050565b600081519050919050565b600082825260208201905092915050565b6000610c7382610ca8565b9150610c7e83610ca8565b925082821015610c9157610c90610d6f565b5b828203905092915050565b60008115159050919050565b6000819050919050565b82818337600083830152505050565b60005b83811015610cdf578082015181840152602081019050610cc4565b83811115610cee576000848401525b50505050565b60006002820490506001821680610d0c57607f821691505b60208210811415610d2057610d1f610d9e565b5b50919050565b6000610d3182610ca8565b91507fffffffffffffffffffffffffffffffffffffffffffffffffffffffffffffffff821415610d6457610d63610d6f565b5b600182019050919050565b7f4e487b7100000000000000000000000000000000000000000000000000000000600052601160045260246000fd5b7f4e487b7100000000000000000000000000000000000000000000000000000000600052602260045260246000fd5b7f4e487b7100000000000000000000000000000000000000000000000000000000600052604160045260246000fd5b6000601f19601f8301169050919050565b610e1681610ca8565b8114610e2157600080fd5b5056fea2646970667358221220a75cb61fac76cf5a94eb2b9279bda0999b6fc70c011ae6ca22763a2e3c280eef64736f6c63430008000033",
  "immutableReferences": {},
  "source": "// SPDX-License-Identifier: SEE LICENSE IN LICENSE\r\npragma solidity ^0.8.0;\r\n\r\ncontract StocksContract {\r\n    uint256 public nextStockId;\r\n\r\n    constructor() {\r\n        nextStockId = 0;\r\n    }\r\n\r\n    struct Stock {\r\n        uint256 id;\r\n        string symbol;\r\n        string name;\r\n        uint256 price;\r\n        bool isAvailable;\r\n        string eventType; // BUY SELL\r\n        uint256 date;\r\n    }\r\n\r\n    mapping(uint256 => Stock) public stocks; // Mapping from stock ID to stock details\r\n    mapping(uint256 => uint256[]) public stockOwners; // Mapping from stock ID to array of owner user IDs\r\n\r\n    function createStock(\r\n        string memory _symbol,\r\n        string memory _name,\r\n        string memory _eventType,\r\n        uint256 _price\r\n    ) public returns (uint256) {\r\n        Stock memory newStock = Stock(\r\n            nextStockId,\r\n            _symbol,\r\n            _name,\r\n            _price,\r\n            true,\r\n            _eventType,\r\n            block.timestamp\r\n        );\r\n        stocks[nextStockId] = newStock;\r\n        nextStockId++;\r\n        return nextStockId - 1;\r\n    }\r\n\r\n    function updateStockOwners(\r\n        uint256 _stockId,\r\n        uint256[] memory _ownerIds\r\n    ) public returns (bool) {\r\n        stockOwners[_stockId] = _ownerIds;\r\n        return true;\r\n    }\r\n\r\n    function getStock(\r\n        uint256 _stockId\r\n    )\r\n        external\r\n        view\r\n        returns (\r\n            uint256,\r\n            string memory,\r\n            string memory,\r\n            uint256,\r\n            bool,\r\n            string memory,\r\n            uint256\r\n        )\r\n    {\r\n        Stock memory s = stocks[_stockId];\r\n        return (\r\n            s.id,\r\n            s.symbol,\r\n            s.name,\r\n            s.price,\r\n            s.isAvailable,\r\n            s.eventType,\r\n            s.date\r\n        );\r\n    }\r\n}\r\n",
  "sourcePath": "D:\\TradeVista\\TradeVista\\blockchain\\contracts\\StocksContract.sol",
  "compiler": {
    "name": "solc",
    "version": "0.8.0+commit.c7dfd78e.Emscripten.clang"
  },
  "schemaVersion": "3.4.16",
  "updatedAt": "2024-04-23T22:34:52.865Z",
  "networkType": "ethereum",
  "devdoc": {
    "kind": "dev",
    "methods": {},
    "version": 1
  },
  "userdoc": {
    "kind": "user",
    "methods": {},
    "version": 1
  }
}