{
  "contractName": "UsersContract",
  "abi": [
    {
      "inputs": [
        {
          "internalType": "address",
          "name": "_stocksContractAddress",
          "type": "address"
        }
      ],
      "stateMutability": "nonpayable",
      "type": "constructor"
    },
    {
      "inputs": [
        {
          "internalType": "uint256",
          "name": "",
          "type": "uint256"
        }
      ],
      "name": "mapIdToUser",
      "outputs": [
        {
          "internalType": "uint256",
          "name": "id",
          "type": "uint256"
        },
        {
          "internalType": "string",
          "name": "name",
          "type": "string"
        },
        {
          "internalType": "string",
          "name": "email",
          "type": "string"
        }
      ],
      "stateMutability": "view",
      "type": "function",
      "constant": true
    },
    {
      "inputs": [],
      "name": "nextUserId",
      "outputs": [
        {
          "internalType": "uint256",
          "name": "",
          "type": "uint256"
        }
      ],
      "stateMutability": "view",
      "type": "function",
      "constant": true
    },
    {
      "inputs": [
        {
          "internalType": "string",
          "name": "_name",
          "type": "string"
        },
        {
          "internalType": "string",
          "name": "_email",
          "type": "string"
        }
      ],
      "name": "createUser",
      "outputs": [
        {
          "internalType": "uint256",
          "name": "",
          "type": "uint256"
        }
      ],
      "stateMutability": "nonpayable",
      "type": "function"
    },
    {
      "inputs": [
        {
          "internalType": "uint256",
          "name": "_id",
          "type": "uint256"
        },
        {
          "internalType": "string",
          "name": "_name",
          "type": "string"
        },
        {
          "internalType": "string",
          "name": "_email",
          "type": "string"
        }
      ],
      "name": "updateUser",
      "outputs": [
        {
          "internalType": "bool",
          "name": "",
          "type": "bool"
        }
      ],
      "stateMutability": "nonpayable",
      "type": "function"
    },
    {
      "inputs": [
        {
          "internalType": "uint256",
          "name": "_id",
          "type": "uint256"
        }
      ],
      "name": "deleteUser",
      "outputs": [
        {
          "internalType": "bool",
          "name": "",
          "type": "bool"
        }
      ],
      "stateMutability": "nonpayable",
      "type": "function"
    },
    {
      "inputs": [
        {
          "internalType": "uint256",
          "name": "_id",
          "type": "uint256"
        }
      ],
      "name": "getUser",
      "outputs": [
        {
          "internalType": "uint256",
          "name": "",
          "type": "uint256"
        },
        {
          "internalType": "string",
          "name": "",
          "type": "string"
        },
        {
          "internalType": "string",
          "name": "",
          "type": "string"
        },
        {
          "internalType": "uint256[]",
          "name": "",
          "type": "uint256[]"
        }
      ],
      "stateMutability": "view",
      "type": "function",
      "constant": true
    },
    {
      "inputs": [
        {
          "internalType": "uint256",
          "name": "_userId",
          "type": "uint256"
        },
        {
          "internalType": "uint256",
          "name": "_stockId",
          "type": "uint256"
        }
      ],
      "name": "buyStock",
      "outputs": [
        {
          "internalType": "bool",
          "name": "",
          "type": "bool"
        }
      ],
      "stateMutability": "nonpayable",
      "type": "function"
    },
    {
      "inputs": [
        {
          "internalType": "uint256",
          "name": "_userId",
          "type": "uint256"
        },
        {
          "internalType": "uint256",
          "name": "_stockId",
          "type": "uint256"
        }
      ],
      "name": "sellStock",
      "outputs": [
        {
          "internalType": "bool",
          "name": "",
          "type": "bool"
        }
      ],
      "stateMutability": "nonpayable",
      "type": "function"
    }
  ],
  "bytecode": "0x60806040523480156200001157600080fd5b50604051620019913803806200199183398181016040528101906200003791906200009e565b600160008190555080600160006101000a81548173ffffffffffffffffffffffffffffffffffffffff021916908373ffffffffffffffffffffffffffffffffffffffff1602179055505062000118565b6000815190506200009881620000fe565b92915050565b600060208284031215620000b157600080fd5b6000620000c18482850162000087565b91505092915050565b6000620000d782620000de565b9050919050565b600073ffffffffffffffffffffffffffffffffffffffff82169050919050565b6200010981620000ca565b81146200011557600080fd5b50565b61186980620001286000396000f3fe608060405234801561001057600080fd5b50600436106100885760003560e01c806387b162b51161005b57806387b162b51461014f578063a1e6a2551461017f578063b0467deb1461019d578063b9303dbd146101d057610088565b806338f148451461008d57806351c181a3146100bd5780637b7c3a9b146100ed5780637c17f1561461011d575b600080fd5b6100a760048036038101906100a29190610fe3565b610200565b6040516100b491906113d4565b60405180910390f35b6100d760048036038101906100d29190611171565b61029c565b6040516100e491906113d4565b60405180910390f35b6101076004803603810190610102919061100c565b610578565b60405161011491906113d4565b60405180910390f35b61013760048036038101906101329190610fe3565b610612565b6040516101469392919061149a565b60405180910390f35b61016960048036038101906101649190610f77565b61074c565b604051610176919061144f565b60405180910390f35b61018761088b565b604051610194919061144f565b60405180910390f35b6101b760048036038101906101b29190610fe3565b610891565b6040516101c794939291906114df565b60405180910390f35b6101ea60048036038101906101e59190611171565b610aae565b6040516101f791906113d4565b60405180910390f35b600080548210610245576040517f08c379a000000000000000000000000000000000000000000000000000000000815260040161023c9061142f565b60405180910390fd5b600260008381526020019081526020016000206000808201600090556001820160006102719190610cee565b6002820160006102819190610cee565b6003820160006102919190610d2e565b505060019050919050565b6000805483106102e1576040517f08c379a00000000000000000000000000000000000000000000000000000000081526004016102d89061142f565b60405180910390fd5b600060026000858152602001908152602001600020905060008160030190506000805b8280549050811015610477578583828154811061034a577f4e487b7100000000000000000000000000000000000000000000000000000000600052603260045260246000fd5b90600052602060002001541415610464576001915060018380549050610370919061161c565b8114610412578260018480549050610388919061161c565b815481106103bf577f4e487b7100000000000000000000000000000000000000000000000000000000600052603260045260246000fd5b9060005260206000200154838281548110610403577f4e487b7100000000000000000000000000000000000000000000000000000000600052603260045260246000fd5b90600052602060002001819055505b82805480610449577f4e487b7100000000000000000000000000000000000000000000000000000000600052603160045260246000fd5b60019003818190600052602060002001600090559055610477565b808061046f906116fe565b915050610304565b50806104b8576040517f08c379a00000000000000000000000000000000000000000000000000000000081526004016104af906113ef565b60405180910390fd5b600160009054906101000a900473ffffffffffffffffffffffffffffffffffffffff1673ffffffffffffffffffffffffffffffffffffffff1663be7d7dcc86856003016040518363ffffffff1660e01b815260040161051892919061146a565b602060405180830381600087803b15801561053257600080fd5b505af1158015610546573d6000803e3d6000fd5b505050506040513d601f19601f8201168201806040525081019061056a9190610f4e565b506001935050505092915050565b6000805484106105bd576040517f08c379a00000000000000000000000000000000000000000000000000000000081526004016105b49061142f565b60405180910390fd5b6000600260008681526020019081526020016000209050838160010190805190602001906105ec929190610d4f565b5082816002019080519060200190610605929190610d4f565b5060019150509392505050565b600260205280600052604060002060009150905080600001549080600101805461063b906116b2565b80601f0160208091040260200160405190810160405280929190818152602001828054610667906116b2565b80156106b45780601f10610689576101008083540402835291602001916106b4565b820191906000526020600020905b81548152906001019060200180831161069757829003601f168201915b5050505050908060020180546106c9906116b2565b80601f01602080910402602001604051908101604052809291908181526020018280546106f5906116b2565b80156107425780601f1061071757610100808354040283529160200191610742565b820191906000526020600020905b81548152906001019060200180831161072557829003601f168201915b5050505050905083565b60008060405180608001604052806000548152602001858152602001848152602001600067ffffffffffffffff8111156107af577f4e487b7100000000000000000000000000000000000000000000000000000000600052604160045260246000fd5b6040519080825280602002602001820160405280156107dd5781602001602082028036833780820191505090505b50815250905080600260008054815260200190815260200160002060008201518160000155602082015181600101908051906020019061081e929190610d4f565b50604082015181600201908051906020019061083b929190610d4f565b506060820151816003019080519060200190610858929190610dd5565b5090505060008081548092919061086e906116fe565b91905055506001600054610882919061161c565b91505092915050565b60005481565b6000606080606060005485106108dc576040517f08c379a00000000000000000000000000000000000000000000000000000000081526004016108d39061142f565b60405180910390fd5b6002600086815260200190815260200160002060000154600260008781526020019081526020016000206001016002600088815260200190815260200160002060020160026000898152602001908152602001600020600301828054610941906116b2565b80601f016020809104026020016040519081016040528092919081815260200182805461096d906116b2565b80156109ba5780601f1061098f576101008083540402835291602001916109ba565b820191906000526020600020905b81548152906001019060200180831161099d57829003601f168201915b505050505092508180546109cd906116b2565b80601f01602080910402602001604051908101604052809291908181526020018280546109f9906116b2565b8015610a465780601f10610a1b57610100808354040283529160200191610a46565b820191906000526020600020905b815481529060010190602001808311610a2957829003601f168201915b5050505050915080805480602002602001604051908101604052809291908181526020018280548015610a9857602002820191906000526020600020905b815481526020019060010190808311610a84575b5050505050905093509350935093509193509193565b600080548310610af3576040517f08c379a0000000000000000000000000000000000000000000000000000000008152600401610aea9061142f565b60405180910390fd5b6000600160009054906101000a900473ffffffffffffffffffffffffffffffffffffffff1673ffffffffffffffffffffffffffffffffffffffff16633ab7d09a846040518263ffffffff1660e01b8152600401610b50919061144f565b60006040518083038186803b158015610b6857600080fd5b505afa158015610b7c573d6000803e3d6000fd5b505050506040513d6000823e3d601f19601f82011682018060405250810190610ba5919061108b565b505094505050505080610bed576040517f08c379a0000000000000000000000000000000000000000000000000000000008152600401610be49061140f565b60405180910390fd5b600060026000868152602001908152602001600020905080600301849080600181540180825580915050600190039060005260206000200160009091909190915055600160009054906101000a900473ffffffffffffffffffffffffffffffffffffffff1673ffffffffffffffffffffffffffffffffffffffff1663be7d7dcc85836003016040518363ffffffff1660e01b8152600401610c8f92919061146a565b602060405180830381600087803b158015610ca957600080fd5b505af1158015610cbd573d6000803e3d6000fd5b505050506040513d601f19601f82011682018060405250810190610ce19190610f4e565b5060019250505092915050565b508054610cfa906116b2565b6000825580601f10610d0c5750610d2b565b601f016020900490600052602060002090810190610d2a9190610e22565b5b50565b5080546000825590600052602060002090810190610d4c9190610e22565b50565b828054610d5b906116b2565b90600052602060002090601f016020900481019282610d7d5760008555610dc4565b82601f10610d9657805160ff1916838001178555610dc4565b82800160010185558215610dc4579182015b82811115610dc3578251825591602001919060010190610da8565b5b509050610dd19190610e22565b5090565b828054828255906000526020600020908101928215610e11579160200282015b82811115610e10578251825591602001919060010190610df5565b5b509050610e1e9190610e22565b5090565b5b80821115610e3b576000816000905550600101610e23565b5090565b6000610e52610e4d8461156a565b611539565b905082815260208101848484011115610e6a57600080fd5b610e75848285611670565b509392505050565b6000610e90610e8b8461156a565b611539565b905082815260208101848484011115610ea857600080fd5b610eb384828561167f565b509392505050565b600081519050610eca81611805565b92915050565b600082601f830112610ee157600080fd5b8135610ef1848260208601610e3f565b91505092915050565b600082601f830112610f0b57600080fd5b8151610f1b848260208601610e7d565b91505092915050565b600081359050610f338161181c565b92915050565b600081519050610f488161181c565b92915050565b600060208284031215610f6057600080fd5b6000610f6e84828501610ebb565b91505092915050565b60008060408385031215610f8a57600080fd5b600083013567ffffffffffffffff811115610fa457600080fd5b610fb085828601610ed0565b925050602083013567ffffffffffffffff811115610fcd57600080fd5b610fd985828601610ed0565b9150509250929050565b600060208284031215610ff557600080fd5b600061100384828501610f24565b91505092915050565b60008060006060848603121561102157600080fd5b600061102f86828701610f24565b935050602084013567ffffffffffffffff81111561104c57600080fd5b61105886828701610ed0565b925050604084013567ffffffffffffffff81111561107557600080fd5b61108186828701610ed0565b9150509250925092565b600080600080600080600060e0888a0312156110a657600080fd5b60006110b48a828b01610f39565b975050602088015167ffffffffffffffff8111156110d157600080fd5b6110dd8a828b01610efa565b965050604088015167ffffffffffffffff8111156110fa57600080fd5b6111068a828b01610efa565b95505060606111178a828b01610f39565b94505060806111288a828b01610ebb565b93505060a088015167ffffffffffffffff81111561114557600080fd5b6111518a828b01610efa565b92505060c06111628a828b01610f39565b91505092959891949750929550565b6000806040838503121561118457600080fd5b600061119285828601610f24565b92505060206111a385828601610f24565b9150509250929050565b60006111b983836113b6565b60208301905092915050565b60006111d0826115bf565b6111da81856115fa565b93506111e58361159a565b8060005b838110156112165781516111fd88826111ad565b9750611208836115e0565b9250506001810190506111e9565b5085935050505092915050565b600061122e826115ca565b61123881856115fa565b9350611243836115aa565b8060005b8381101561127b57611258826117d4565b61126288826111ad565b975061126d836115ed565b925050600181019050611247565b5085935050505092915050565b6112918161165a565b82525050565b60006112a2826115d5565b6112ac818561160b565b93506112bc81856020860161167f565b6112c5816117e7565b840191505092915050565b60006112dd60258361160b565b91507f5573657220646f6573206e6f74206f776e20746865207370656369666965642060008301527f73746f636b0000000000000000000000000000000000000000000000000000006020830152604082019050919050565b600061134360168361160b565b91507f53746f636b206973206e6f7420617661696c61626c65000000000000000000006000830152602082019050919050565b600061138360138361160b565b91507f5573657220646f6573206e6f74206578697374000000000000000000000000006000830152602082019050919050565b6113bf81611666565b82525050565b6113ce81611666565b82525050565b60006020820190506113e96000830184611288565b92915050565b60006020820190508181036000830152611408816112d0565b9050919050565b6000602082019050818103600083015261142881611336565b9050919050565b6000602082019050818103600083015261144881611376565b9050919050565b600060208201905061146460008301846113c5565b92915050565b600060408201905061147f60008301856113c5565b81810360208301526114918184611223565b90509392505050565b60006060820190506114af60008301866113c5565b81810360208301526114c18185611297565b905081810360408301526114d58184611297565b9050949350505050565b60006080820190506114f460008301876113c5565b81810360208301526115068186611297565b9050818103604083015261151a8185611297565b9050818103606083015261152e81846111c5565b905095945050505050565b6000604051905081810181811067ffffffffffffffff821117156115605761155f6117a5565b5b8060405250919050565b600067ffffffffffffffff821115611585576115846117a5565b5b601f19601f8301169050602081019050919050565b6000819050602082019050919050565b60008190508160005260206000209050919050565b600081519050919050565b600081549050919050565b600081519050919050565b6000602082019050919050565b6000600182019050919050565b600082825260208201905092915050565b600082825260208201905092915050565b600061162782611666565b915061163283611666565b92508282101561164557611644611747565b5b828203905092915050565b6000819050919050565b60008115159050919050565b6000819050919050565b82818337600083830152505050565b60005b8381101561169d578082015181840152602081019050611682565b838111156116ac576000848401525b50505050565b600060028204905060018216806116ca57607f821691505b602082108114156116de576116dd611776565b5b50919050565b60006116f76116f2836117f8565b611650565b9050919050565b600061170982611666565b91507fffffffffffffffffffffffffffffffffffffffffffffffffffffffffffffffff82141561173c5761173b611747565b5b600182019050919050565b7f4e487b7100000000000000000000000000000000000000000000000000000000600052601160045260246000fd5b7f4e487b7100000000000000000000000000000000000000000000000000000000600052602260045260246000fd5b7f4e487b7100000000000000000000000000000000000000000000000000000000600052604160045260246000fd5b60006117e082546116e4565b9050919050565b6000601f19601f8301169050919050565b60008160001c9050919050565b61180e8161165a565b811461181957600080fd5b50565b61182581611666565b811461183057600080fd5b5056fea2646970667358221220bc1ef7f78f183bcd54cb735ac137b62109cc8e85b6d077cdd151a8f4c55a86b664736f6c63430008000033",
  "immutableReferences": {},
  "source": "// SPDX-License-Identifier: SEE LICENSE IN LICENSE\r\npragma solidity ^0.8.0;\r\n\r\nimport \"./StocksContract.sol\";\r\n\r\ncontract UsersContract {\r\n    uint256 public nextUserId;\r\n    StocksContract stocksContract; // Instance of StocksContract\r\n\r\n    constructor(address _stocksContractAddress) {\r\n        nextUserId = 1; // Start user IDs from 1\r\n        stocksContract = StocksContract(_stocksContractAddress); // Initialize instance of StocksContract\r\n    }\r\n\r\n    struct User {\r\n        uint256 id;\r\n        string name;\r\n        string email;\r\n        uint256[] ownedStocks;\r\n    }\r\n\r\n    mapping(uint256 => User) public mapIdToUser;\r\n\r\n    function createUser(\r\n        string memory _name,\r\n        string memory _email\r\n    ) public returns (uint256) {\r\n        User memory newUser = User(nextUserId, _name, _email, new uint256[](0));\r\n        mapIdToUser[nextUserId] = newUser;\r\n        nextUserId++;\r\n        return nextUserId - 1; // Return the ID of the created user\r\n    }\r\n\r\n    function updateUser(\r\n        uint256 _id,\r\n        string memory _name,\r\n        string memory _email\r\n    ) public returns (bool) {\r\n        require(_id < nextUserId, \"User does not exist\");\r\n        User storage u = mapIdToUser[_id];\r\n        u.name = _name;\r\n        u.email = _email;\r\n        return true;\r\n    }\r\n\r\n    function deleteUser(uint256 _id) public returns (bool) {\r\n        require(_id < nextUserId, \"User does not exist\");\r\n        delete mapIdToUser[_id];\r\n        return true;\r\n    }\r\n\r\n    function getUser(\r\n        uint256 _id\r\n    )\r\n        external\r\n        view\r\n        returns (uint256, string memory, string memory, uint256[] memory)\r\n    {\r\n        require(_id < nextUserId, \"User does not exist\");\r\n        return (\r\n            mapIdToUser[_id].id,\r\n            mapIdToUser[_id].name,\r\n            mapIdToUser[_id].email,\r\n            mapIdToUser[_id].ownedStocks\r\n        );\r\n    }\r\n\r\n    function buyStock(uint256 _userId, uint256 _stockId) public returns (bool) {\r\n        require(_userId < nextUserId, \"User does not exist\");\r\n        (, , , , bool isAvailable, , ) = stocksContract.getStock(_stockId);\r\n        require(isAvailable, \"Stock is not available\");\r\n\r\n        User storage user = mapIdToUser[_userId];\r\n        user.ownedStocks.push(_stockId);\r\n\r\n        stocksContract.updateStockOwners(_stockId, user.ownedStocks);\r\n\r\n        return true;\r\n    }\r\n\r\n    function sellStock(\r\n        uint256 _userId,\r\n        uint256 _stockId\r\n    ) public returns (bool) {\r\n        require(_userId < nextUserId, \"User does not exist\");\r\n\r\n        User storage user = mapIdToUser[_userId];\r\n        uint256[] storage userStocks = user.ownedStocks;\r\n        bool found = false;\r\n        for (uint256 i = 0; i < userStocks.length; i++) {\r\n            if (userStocks[i] == _stockId) {\r\n                found = true;\r\n                // Remove the sold stock from the user's owned stocks array\r\n                if (i != userStocks.length - 1) {\r\n                    userStocks[i] = userStocks[userStocks.length - 1];\r\n                }\r\n                userStocks.pop();\r\n                break;\r\n            }\r\n        }\r\n        require(found, \"User does not own the specified stock\");\r\n\r\n        stocksContract.updateStockOwners(_stockId, user.ownedStocks);\r\n\r\n        return true;\r\n    }\r\n}\r\n",
  "sourcePath": "D:\\TradeVista\\TradeVista\\blockchain\\contracts\\UsersContract.sol",
  "compiler": {
    "name": "solc",
    "version": "0.8.0+commit.c7dfd78e.Emscripten.clang"
  },
  "schemaVersion": "3.4.16",
  "updatedAt": "2024-04-23T22:34:52.848Z",
  "networkType": "ethereum",
  "devdoc": {
    "kind": "dev",
    "methods": {},
    "version": 1
  },
  "userdoc": {
    "kind": "user",
    "methods": {},
    "version": 1
  }
}