{
  "contractName": "UsersContract",
  "abi": [
    {
      "inputs": [],
      "stateMutability": "nonpayable",
      "type": "constructor"
    },
    {
      "inputs": [
        {
          "internalType": "uint256",
          "name": "",
          "type": "uint256"
        }
      ],
      "name": "mapIdToUser",
      "outputs": [
        {
          "internalType": "uint256",
          "name": "id",
          "type": "uint256"
        },
        {
          "internalType": "string",
          "name": "name",
          "type": "string"
        },
        {
          "internalType": "string",
          "name": "email",
          "type": "string"
        }
      ],
      "stateMutability": "view",
      "type": "function",
      "constant": true
    },
    {
      "inputs": [],
      "name": "nextUserId",
      "outputs": [
        {
          "internalType": "uint256",
          "name": "",
          "type": "uint256"
        }
      ],
      "stateMutability": "view",
      "type": "function",
      "constant": true
    },
    {
      "inputs": [
        {
          "internalType": "string",
          "name": "_name",
          "type": "string"
        },
        {
          "internalType": "string",
          "name": "_email",
          "type": "string"
        }
      ],
      "name": "createUser",
      "outputs": [
        {
          "internalType": "uint256",
          "name": "",
          "type": "uint256"
        }
      ],
      "stateMutability": "nonpayable",
      "type": "function"
    },
    {
      "inputs": [
        {
          "internalType": "uint256",
          "name": "_id",
          "type": "uint256"
        },
        {
          "internalType": "string",
          "name": "_name",
          "type": "string"
        },
        {
          "internalType": "string",
          "name": "_email",
          "type": "string"
        }
      ],
      "name": "updateUser",
      "outputs": [
        {
          "internalType": "bool",
          "name": "",
          "type": "bool"
        }
      ],
      "stateMutability": "nonpayable",
      "type": "function"
    },
    {
      "inputs": [
        {
          "internalType": "uint256",
          "name": "_id",
          "type": "uint256"
        }
      ],
      "name": "deleteUser",
      "outputs": [
        {
          "internalType": "bool",
          "name": "",
          "type": "bool"
        }
      ],
      "stateMutability": "nonpayable",
      "type": "function"
    },
    {
      "inputs": [
        {
          "internalType": "uint256",
          "name": "_id",
          "type": "uint256"
        }
      ],
      "name": "getUser",
      "outputs": [
        {
          "internalType": "uint256",
          "name": "",
          "type": "uint256"
        },
        {
          "internalType": "string",
          "name": "",
          "type": "string"
        },
        {
          "internalType": "string",
          "name": "",
          "type": "string"
        },
        {
          "internalType": "uint256[]",
          "name": "",
          "type": "uint256[]"
        }
      ],
      "stateMutability": "view",
      "type": "function",
      "constant": true
    },
    {
      "inputs": [
        {
          "internalType": "uint256",
          "name": "_userId",
          "type": "uint256"
        },
        {
          "internalType": "uint256",
          "name": "_stockId",
          "type": "uint256"
        }
      ],
      "name": "addStockToUser",
      "outputs": [
        {
          "internalType": "bool",
          "name": "",
          "type": "bool"
        }
      ],
      "stateMutability": "nonpayable",
      "type": "function"
    }
  ],
  "bytecode": "0x608060405234801561001057600080fd5b506001600081905550611219806100286000396000f3fe608060405234801561001057600080fd5b506004361061007d5760003560e01c806387b162b51161005b57806387b162b514610114578063987dfc0014610144578063a1e6a25514610174578063b0467deb146101925761007d565b806338f14845146100825780637b7c3a9b146100b25780637c17f156146100e2575b600080fd5b61009c600480360381019061009791906108fc565b6101c5565b6040516100a99190610944565b60405180910390f35b6100cc60048036038101906100c79190610aa5565b610261565b6040516100d99190610944565b60405180910390f35b6100fc60048036038101906100f791906108fc565b6102ed565b60405161010b93929190610bbe565b60405180910390f35b61012e60048036038101906101299190610c03565b610427565b60405161013b9190610c7b565b60405180910390f35b61015e60048036038101906101599190610c96565b610532565b60405161016b9190610944565b60405180910390f35b61017c6105c4565b6040516101899190610c7b565b60405180910390f35b6101ac60048036038101906101a791906108fc565b6105ca565b6040516101bc9493929190610d94565b60405180910390f35b60008054821061020a576040517f08c379a000000000000000000000000000000000000000000000000000000000815260040161020190610e3a565b60405180910390fd5b6001600083815260200190815260200160002060008082016000905560018201600061023691906107e7565b60028201600061024691906107e7565b6003820160006102569190610827565b505060019050919050565b6000805484106102a6576040517f08c379a000000000000000000000000000000000000000000000000000000000815260040161029d90610e3a565b60405180910390fd5b6000600160008681526020019081526020016000209050838160010190816102ce9190611066565b50828160020190816102e09190611066565b5060019150509392505050565b600160205280600052604060002060009150905080600001549080600101805461031690610e89565b80601f016020809104026020016040519081016040528092919081815260200182805461034290610e89565b801561038f5780601f106103645761010080835404028352916020019161038f565b820191906000526020600020905b81548152906001019060200180831161037257829003601f168201915b5050505050908060020180546103a490610e89565b80601f01602080910402602001604051908101604052809291908181526020018280546103d090610e89565b801561041d5780601f106103f25761010080835404028352916020019161041d565b820191906000526020600020905b81548152906001019060200180831161040057829003601f168201915b5050505050905083565b60008060405180608001604052806000548152602001858152602001848152602001600067ffffffffffffffff8111156104645761046361097a565b5b6040519080825280602002602001820160405280156104925781602001602082028036833780820191505090505b5081525090508060016000805481526020019081526020016000206000820151816000015560208201518160010190816104cc9190611066565b5060408201518160020190816104e29190611066565b5060608201518160030190805190602001906104ff929190610848565b5090505060008081548092919061051590611167565b9190505550600160005461052991906111af565b91505092915050565b600080548310610577576040517f08c379a000000000000000000000000000000000000000000000000000000000815260040161056e90610e3a565b60405180910390fd5b600060016000858152602001908152602001600020905080600301839080600181540180825580915050600190039060005260206000200160009091909190915055600191505092915050565b60005481565b600060608060606000548510610615576040517f08c379a000000000000000000000000000000000000000000000000000000000815260040161060c90610e3a565b60405180910390fd5b600160008681526020019081526020016000206000015460016000878152602001908152602001600020600101600160008881526020019081526020016000206002016001600089815260200190815260200160002060030182805461067a90610e89565b80601f01602080910402602001604051908101604052809291908181526020018280546106a690610e89565b80156106f35780601f106106c8576101008083540402835291602001916106f3565b820191906000526020600020905b8154815290600101906020018083116106d657829003601f168201915b5050505050925081805461070690610e89565b80601f016020809104026020016040519081016040528092919081815260200182805461073290610e89565b801561077f5780601f106107545761010080835404028352916020019161077f565b820191906000526020600020905b81548152906001019060200180831161076257829003601f168201915b50505050509150808054806020026020016040519081016040528092919081815260200182805480156107d157602002820191906000526020600020905b8154815260200190600101908083116107bd575b5050505050905093509350935093509193509193565b5080546107f390610e89565b6000825580601f106108055750610824565b601f0160209004906000526020600020908101906108239190610895565b5b50565b50805460008255906000526020600020908101906108459190610895565b50565b828054828255906000526020600020908101928215610884579160200282015b82811115610883578251825591602001919060010190610868565b5b5090506108919190610895565b5090565b5b808211156108ae576000816000905550600101610896565b5090565b6000604051905090565b600080fd5b600080fd5b6000819050919050565b6108d9816108c6565b81146108e457600080fd5b50565b6000813590506108f6816108d0565b92915050565b600060208284031215610912576109116108bc565b5b6000610920848285016108e7565b91505092915050565b60008115159050919050565b61093e81610929565b82525050565b60006020820190506109596000830184610935565b92915050565b600080fd5b600080fd5b6000601f19601f8301169050919050565b7f4e487b7100000000000000000000000000000000000000000000000000000000600052604160045260246000fd5b6109b282610969565b810181811067ffffffffffffffff821117156109d1576109d061097a565b5b80604052505050565b60006109e46108b2565b90506109f082826109a9565b919050565b600067ffffffffffffffff821115610a1057610a0f61097a565b5b610a1982610969565b9050602081019050919050565b82818337600083830152505050565b6000610a48610a43846109f5565b6109da565b905082815260208101848484011115610a6457610a63610964565b5b610a6f848285610a26565b509392505050565b600082601f830112610a8c57610a8b61095f565b5b8135610a9c848260208601610a35565b91505092915050565b600080600060608486031215610abe57610abd6108bc565b5b6000610acc868287016108e7565b935050602084013567ffffffffffffffff811115610aed57610aec6108c1565b5b610af986828701610a77565b925050604084013567ffffffffffffffff811115610b1a57610b196108c1565b5b610b2686828701610a77565b9150509250925092565b610b39816108c6565b82525050565b600081519050919050565b600082825260208201905092915050565b60005b83811015610b79578082015181840152602081019050610b5e565b60008484015250505050565b6000610b9082610b3f565b610b9a8185610b4a565b9350610baa818560208601610b5b565b610bb381610969565b840191505092915050565b6000606082019050610bd36000830186610b30565b8181036020830152610be58185610b85565b90508181036040830152610bf98184610b85565b9050949350505050565b60008060408385031215610c1a57610c196108bc565b5b600083013567ffffffffffffffff811115610c3857610c376108c1565b5b610c4485828601610a77565b925050602083013567ffffffffffffffff811115610c6557610c646108c1565b5b610c7185828601610a77565b9150509250929050565b6000602082019050610c906000830184610b30565b92915050565b60008060408385031215610cad57610cac6108bc565b5b6000610cbb858286016108e7565b9250506020610ccc858286016108e7565b9150509250929050565b600081519050919050565b600082825260208201905092915050565b6000819050602082019050919050565b610d0b816108c6565b82525050565b6000610d1d8383610d02565b60208301905092915050565b6000602082019050919050565b6000610d4182610cd6565b610d4b8185610ce1565b9350610d5683610cf2565b8060005b83811015610d87578151610d6e8882610d11565b9750610d7983610d29565b925050600181019050610d5a565b5085935050505092915050565b6000608082019050610da96000830187610b30565b8181036020830152610dbb8186610b85565b90508181036040830152610dcf8185610b85565b90508181036060830152610de38184610d36565b905095945050505050565b7f5573657220646f6573206e6f7420657869737400000000000000000000000000600082015250565b6000610e24601383610b4a565b9150610e2f82610dee565b602082019050919050565b60006020820190508181036000830152610e5381610e17565b9050919050565b7f4e487b7100000000000000000000000000000000000000000000000000000000600052602260045260246000fd5b60006002820490506001821680610ea157607f821691505b602082108103610eb457610eb3610e5a565b5b50919050565b60008190508160005260206000209050919050565b60006020601f8301049050919050565b600082821b905092915050565b600060088302610f1c7fffffffffffffffffffffffffffffffffffffffffffffffffffffffffffffffff82610edf565b610f268683610edf565b95508019841693508086168417925050509392505050565b6000819050919050565b6000610f63610f5e610f59846108c6565b610f3e565b6108c6565b9050919050565b6000819050919050565b610f7d83610f48565b610f91610f8982610f6a565b848454610eec565b825550505050565b600090565b610fa6610f99565b610fb1818484610f74565b505050565b5b81811015610fd557610fca600082610f9e565b600181019050610fb7565b5050565b601f82111561101a57610feb81610eba565b610ff484610ecf565b81016020851015611003578190505b61101761100f85610ecf565b830182610fb6565b50505b505050565b600082821c905092915050565b600061103d6000198460080261101f565b1980831691505092915050565b6000611056838361102c565b9150826002028217905092915050565b61106f82610b3f565b67ffffffffffffffff8111156110885761108761097a565b5b6110928254610e89565b61109d828285610fd9565b600060209050601f8311600181146110d057600084156110be578287015190505b6110c8858261104a565b865550611130565b601f1984166110de86610eba565b60005b82811015611106578489015182556001820191506020850194506020810190506110e1565b86831015611123578489015161111f601f89168261102c565b8355505b6001600288020188555050505b505050505050565b7f4e487b7100000000000000000000000000000000000000000000000000000000600052601160045260246000fd5b6000611172826108c6565b91507fffffffffffffffffffffffffffffffffffffffffffffffffffffffffffffffff82036111a4576111a3611138565b5b600182019050919050565b60006111ba826108c6565b91506111c5836108c6565b92508282039050818111156111dd576111dc611138565b5b9291505056fea2646970667358221220bcfb842822b187cb4a8cecfd470bdd3d3b65700b2a8866138e31ab47f9c389f064736f6c63430008130033",
  "immutableReferences": {},
  "source": "// SPDX-License-Identifier: SEE LICENSE IN LICENSE\r\npragma solidity ^0.8.0;\r\n\r\nimport \"./StocksContract.sol\";\r\n\r\ncontract UsersContract {\r\n    uint256 public nextUserId;\r\n\r\n    constructor() {\r\n        nextUserId = 1; // Start user IDs from 1\r\n    }\r\n\r\n    struct User {\r\n        uint256 id;\r\n        string name;\r\n        string email;\r\n        uint256[] ownedStocks;\r\n    }\r\n\r\n    mapping(uint256 => User) public mapIdToUser;\r\n\r\n    function createUser(string memory _name, string memory _email) public returns (uint256) {\r\n        User memory newUser = User(nextUserId, _name, _email, new uint256[](0));\r\n        mapIdToUser[nextUserId] = newUser;\r\n        nextUserId++;\r\n        return nextUserId - 1; // Return the ID of the created user\r\n    }\r\n\r\n    function updateUser(uint256 _id, string memory _name, string memory _email) public returns (bool) {\r\n        require(_id < nextUserId, \"User does not exist\");\r\n        User storage u = mapIdToUser[_id];\r\n        u.name = _name;\r\n        u.email = _email;\r\n        return true;\r\n    }\r\n\r\n    function deleteUser(uint256 _id) public returns (bool) {\r\n        require(_id < nextUserId, \"User does not exist\");\r\n        delete mapIdToUser[_id];\r\n        return true;\r\n    }\r\n\r\n    function getUser(uint256 _id) external view returns (uint256, string memory, string memory, uint256[] memory) {\r\n        require(_id < nextUserId, \"User does not exist\");\r\n        return (mapIdToUser[_id].id, mapIdToUser[_id].name, mapIdToUser[_id].email, mapIdToUser[_id].ownedStocks);\r\n    }\r\n\r\n    function addStockToUser(uint256 _userId, uint256 _stockId) public returns (bool) {\r\n        require(_userId < nextUserId, \"User does not exist\");\r\n\r\n        User storage u = mapIdToUser[_userId];\r\n        u.ownedStocks.push(_stockId);\r\n        return true;\r\n    }\r\n}\r\n",
  "sourcePath": "D:\\DESKTOP\\sem-6\\Minor\\Webs\\blockchain\\contracts\\UsersContract.sol",
  "compiler": {
    "name": "solc",
    "version": "0.8.19+commit.7dd6d404.Emscripten.clang"
  },
  "schemaVersion": "3.4.16",
  "updatedAt": "2024-04-11T10:24:35.676Z",
  "networkType": "ethereum",
  "devdoc": {
    "kind": "dev",
    "methods": {},
    "version": 1
  },
  "userdoc": {
    "kind": "user",
    "methods": {},
    "version": 1
  }
}