{
  "contractName": "StocksContract",
  "abi": [
    {
      "inputs": [],
      "stateMutability": "nonpayable",
      "type": "constructor"
    },
    {
      "inputs": [],
      "name": "nextStockId",
      "outputs": [
        {
          "internalType": "uint256",
          "name": "",
          "type": "uint256"
        }
      ],
      "stateMutability": "view",
      "type": "function",
      "constant": true
    },
    {
      "inputs": [
        {
          "internalType": "uint256",
          "name": "",
          "type": "uint256"
        }
      ],
      "name": "stocks",
      "outputs": [
        {
          "internalType": "uint256",
          "name": "id",
          "type": "uint256"
        },
        {
          "internalType": "string",
          "name": "symbol",
          "type": "string"
        },
        {
          "internalType": "string",
          "name": "name",
          "type": "string"
        },
        {
          "internalType": "uint256",
          "name": "price",
          "type": "uint256"
        },
        {
          "internalType": "bool",
          "name": "isAvailable",
          "type": "bool"
        },
        {
          "internalType": "string",
          "name": "eventType",
          "type": "string"
        },
        {
          "internalType": "uint256",
          "name": "date",
          "type": "uint256"
        }
      ],
      "stateMutability": "view",
      "type": "function",
      "constant": true
    },
    {
      "inputs": [
        {
          "internalType": "string",
          "name": "_symbol",
          "type": "string"
        },
        {
          "internalType": "string",
          "name": "_name",
          "type": "string"
        },
        {
          "internalType": "string",
          "name": "_eventType",
          "type": "string"
        },
        {
          "internalType": "uint256",
          "name": "_price",
          "type": "uint256"
        }
      ],
      "name": "createStock",
      "outputs": [
        {
          "internalType": "uint256",
          "name": "",
          "type": "uint256"
        }
      ],
      "stateMutability": "nonpayable",
      "type": "function"
    }
  ],
  "bytecode": "0x608060405234801561001057600080fd5b5060008081905550610b3c806100276000396000f3fe608060405234801561001057600080fd5b50600436106100415760003560e01c8063226b876c146100465780633a43d9c51461007c5780639cfe7646146100ac575b600080fd5b610060600480360381019061005b9190610407565b6100ca565b60405161007397969594939291906104ee565b60405180910390f35b610096600480360381019061009191906106a7565b6102b1565b6040516100a39190610762565b60405180910390f35b6100b46103b7565b6040516100c19190610762565b60405180910390f35b60016020528060005260406000206000915090508060000154908060010180546100f3906107ac565b80601f016020809104026020016040519081016040528092919081815260200182805461011f906107ac565b801561016c5780601f106101415761010080835404028352916020019161016c565b820191906000526020600020905b81548152906001019060200180831161014f57829003601f168201915b505050505090806002018054610181906107ac565b80601f01602080910402602001604051908101604052809291908181526020018280546101ad906107ac565b80156101fa5780601f106101cf576101008083540402835291602001916101fa565b820191906000526020600020905b8154815290600101906020018083116101dd57829003601f168201915b5050505050908060030154908060040160009054906101000a900460ff1690806005018054610228906107ac565b80601f0160208091040260200160405190810160405280929190818152602001828054610254906107ac565b80156102a15780601f10610276576101008083540402835291602001916102a1565b820191906000526020600020905b81548152906001019060200180831161028457829003601f168201915b5050505050908060060154905087565b6000806040518060e0016040528060005481526020018781526020018681526020018481526020016001151581526020018581526020014281525090508060016000805481526020019081526020016000206000820151816000015560208201518160010190816103229190610989565b5060408201518160020190816103389190610989565b506060820151816003015560808201518160040160006101000a81548160ff02191690831515021790555060a08201518160050190816103789190610989565b5060c0820151816006015590505060008081548092919061039890610a8a565b919050555060016000546103ac9190610ad2565b915050949350505050565b60005481565b6000604051905090565b600080fd5b600080fd5b6000819050919050565b6103e4816103d1565b81146103ef57600080fd5b50565b600081359050610401816103db565b92915050565b60006020828403121561041d5761041c6103c7565b5b600061042b848285016103f2565b91505092915050565b61043d816103d1565b82525050565b600081519050919050565b600082825260208201905092915050565b60005b8381101561047d578082015181840152602081019050610462565b60008484015250505050565b6000601f19601f8301169050919050565b60006104a582610443565b6104af818561044e565b93506104bf81856020860161045f565b6104c881610489565b840191505092915050565b60008115159050919050565b6104e8816104d3565b82525050565b600060e082019050610503600083018a610434565b8181036020830152610515818961049a565b90508181036040830152610529818861049a565b90506105386060830187610434565b61054560808301866104df565b81810360a0830152610557818561049a565b905061056660c0830184610434565b98975050505050505050565b600080fd5b600080fd5b7f4e487b7100000000000000000000000000000000000000000000000000000000600052604160045260246000fd5b6105b482610489565b810181811067ffffffffffffffff821117156105d3576105d261057c565b5b80604052505050565b60006105e66103bd565b90506105f282826105ab565b919050565b600067ffffffffffffffff8211156106125761061161057c565b5b61061b82610489565b9050602081019050919050565b82818337600083830152505050565b600061064a610645846105f7565b6105dc565b90508281526020810184848401111561066657610665610577565b5b610671848285610628565b509392505050565b600082601f83011261068e5761068d610572565b5b813561069e848260208601610637565b91505092915050565b600080600080608085870312156106c1576106c06103c7565b5b600085013567ffffffffffffffff8111156106df576106de6103cc565b5b6106eb87828801610679565b945050602085013567ffffffffffffffff81111561070c5761070b6103cc565b5b61071887828801610679565b935050604085013567ffffffffffffffff811115610739576107386103cc565b5b61074587828801610679565b9250506060610756878288016103f2565b91505092959194509250565b60006020820190506107776000830184610434565b92915050565b7f4e487b7100000000000000000000000000000000000000000000000000000000600052602260045260246000fd5b600060028204905060018216806107c457607f821691505b6020821081036107d7576107d661077d565b5b50919050565b60008190508160005260206000209050919050565b60006020601f8301049050919050565b600082821b905092915050565b60006008830261083f7fffffffffffffffffffffffffffffffffffffffffffffffffffffffffffffffff82610802565b6108498683610802565b95508019841693508086168417925050509392505050565b6000819050919050565b600061088661088161087c846103d1565b610861565b6103d1565b9050919050565b6000819050919050565b6108a08361086b565b6108b46108ac8261088d565b84845461080f565b825550505050565b600090565b6108c96108bc565b6108d4818484610897565b505050565b5b818110156108f8576108ed6000826108c1565b6001810190506108da565b5050565b601f82111561093d5761090e816107dd565b610917846107f2565b81016020851015610926578190505b61093a610932856107f2565b8301826108d9565b50505b505050565b600082821c905092915050565b600061096060001984600802610942565b1980831691505092915050565b6000610979838361094f565b9150826002028217905092915050565b61099282610443565b67ffffffffffffffff8111156109ab576109aa61057c565b5b6109b582546107ac565b6109c08282856108fc565b600060209050601f8311600181146109f357600084156109e1578287015190505b6109eb858261096d565b865550610a53565b601f198416610a01866107dd565b60005b82811015610a2957848901518255600182019150602085019450602081019050610a04565b86831015610a465784890151610a42601f89168261094f565b8355505b6001600288020188555050505b505050505050565b7f4e487b7100000000000000000000000000000000000000000000000000000000600052601160045260246000fd5b6000610a95826103d1565b91507fffffffffffffffffffffffffffffffffffffffffffffffffffffffffffffffff8203610ac757610ac6610a5b565b5b600182019050919050565b6000610add826103d1565b9150610ae8836103d1565b9250828203905081811115610b0057610aff610a5b565b5b9291505056fea26469706673582212204e31c8bd4838c57cec54c1f3c8ee1c100603330f4f228ee501911a071cb0bc5564736f6c63430008130033",
  "immutableReferences": {},
  "source": "// SPDX-License-Identifier: SEE LICENSE IN LICENSE\r\npragma solidity ^0.8.0;\r\n\r\ncontract StocksContract {\r\n    uint256 public nextStockId;\r\n    constructor(){\r\n        nextStockId = 0;\r\n    }\r\n    struct Stock {\r\n        uint256 id;\r\n        string symbol;\r\n        string name;\r\n        uint256 price;\r\n        bool isAvailable;\r\n        string eventType; // BUY SELL\r\n        uint256 date;\r\n    }\r\n\r\n    mapping(uint256 => Stock) public stocks;\r\n\r\n    function createStock(string memory _symbol, string memory _name, string memory _eventType, uint256 _price) public returns (uint256) {\r\n        Stock memory newStock = Stock(nextStockId, _symbol, _name, _price, true, _eventType, block.timestamp);\r\n        stocks[nextStockId] = newStock;\r\n        nextStockId++;\r\n        return nextStockId - 1; \r\n    }\r\n}\r\n",
  "sourcePath": "D:\\DESKTOP\\sem-6\\Minor\\Webs\\blockchain\\contracts\\StocksContract.sol",
  "compiler": {
    "name": "solc",
    "version": "0.8.19+commit.7dd6d404.Emscripten.clang"
  },
  "schemaVersion": "3.4.16",
  "updatedAt": "2024-04-11T10:13:13.679Z",
  "networkType": "ethereum",
  "devdoc": {
    "kind": "dev",
    "methods": {},
    "version": 1
  },
  "userdoc": {
    "kind": "user",
    "methods": {},
    "version": 1
  }
}