{
  "contractName": "StocksContract",
  "abi": [
    {
      "inputs": [],
      "name": "nextStockId",
      "outputs": [
        {
          "internalType": "uint256",
          "name": "",
          "type": "uint256"
        }
      ],
      "stateMutability": "view",
      "type": "function",
      "constant": true
    },
    {
      "inputs": [
        {
          "internalType": "uint256",
          "name": "",
          "type": "uint256"
        }
      ],
      "name": "stocks",
      "outputs": [
        {
          "internalType": "uint256",
          "name": "id",
          "type": "uint256"
        },
        {
          "internalType": "string",
          "name": "symbol",
          "type": "string"
        },
        {
          "internalType": "string",
          "name": "name",
          "type": "string"
        },
        {
          "internalType": "uint256",
          "name": "price",
          "type": "uint256"
        },
        {
          "internalType": "bool",
          "name": "isAvailable",
          "type": "bool"
        },
        {
          "internalType": "string",
          "name": "eventType",
          "type": "string"
        },
        {
          "internalType": "uint256",
          "name": "date",
          "type": "uint256"
        }
      ],
      "stateMutability": "view",
      "type": "function",
      "constant": true
    },
    {
      "inputs": [
        {
          "internalType": "string",
          "name": "_symbol",
          "type": "string"
        },
        {
          "internalType": "string",
          "name": "_name",
          "type": "string"
        },
        {
          "internalType": "string",
          "name": "_eventType",
          "type": "string"
        },
        {
          "internalType": "uint256",
          "name": "_price",
          "type": "uint256"
        }
      ],
      "name": "createStock",
      "outputs": [
        {
          "internalType": "uint256",
          "name": "",
          "type": "uint256"
        }
      ],
      "stateMutability": "nonpayable",
      "type": "function"
    }
  ],
  "bytecode": "0x608060405234801561001057600080fd5b5061097f806100206000396000f3fe608060405234801561001057600080fd5b50600436106100415760003560e01c8063226b876c146100465780633a43d9c51461007c5780639cfe7646146100ac575b600080fd5b610060600480360381019061005b91906104bf565b6100ca565b60405161007397969594939291906105af565b60405180910390f35b61009660048036038101906100919190610768565b6102b1565b6040516100a39190610823565b60405180910390f35b6100b46103cc565b6040516100c19190610823565b60405180910390f35b60016020528060005260406000206000915090508060000154908060010180546100f39061086d565b80601f016020809104026020016040519081016040528092919081815260200182805461011f9061086d565b801561016c5780601f106101415761010080835404028352916020019161016c565b820191906000526020600020905b81548152906001019060200180831161014f57829003601f168201915b5050505050908060020180546101819061086d565b80601f01602080910402602001604051908101604052809291908181526020018280546101ad9061086d565b80156101fa5780601f106101cf576101008083540402835291602001916101fa565b820191906000526020600020905b8154815290600101906020018083116101dd57829003601f168201915b5050505050908060030154908060040160009054906101000a900460ff16908060050180546102289061086d565b80601f01602080910402602001604051908101604052809291908181526020018280546102549061086d565b80156102a15780601f10610276576101008083540402835291602001916102a1565b820191906000526020600020905b81548152906001019060200180831161028457829003601f168201915b5050505050908060060154905087565b6000806040518060e0016040528060005481526020018781526020018681526020018481526020016001151581526020018581526020014281525090508060016000805481526020019081526020016000206000820151816000015560208201518160010190805190602001906103299291906103d2565b5060408201518160020190805190602001906103469291906103d2565b506060820151816003015560808201518160040160006101000a81548160ff02191690831515021790555060a082015181600501908051906020019061038d9291906103d2565b5060c082015181600601559050506000808154809291906103ad906108cd565b919050555060016000546103c19190610915565b915050949350505050565b60005481565b8280546103de9061086d565b90600052602060002090601f0160209004810192826104005760008555610447565b82601f1061041957805160ff1916838001178555610447565b82800160010185558215610447579182015b8281111561044657825182559160200191906001019061042b565b5b5090506104549190610458565b5090565b5b80821115610471576000816000905550600101610459565b5090565b6000604051905090565b600080fd5b600080fd5b6000819050919050565b61049c81610489565b81146104a757600080fd5b50565b6000813590506104b981610493565b92915050565b6000602082840312156104d5576104d461047f565b5b60006104e3848285016104aa565b91505092915050565b6104f581610489565b82525050565b600081519050919050565b600082825260208201905092915050565b60005b8381101561053557808201518184015260208101905061051a565b83811115610544576000848401525b50505050565b6000601f19601f8301169050919050565b6000610566826104fb565b6105708185610506565b9350610580818560208601610517565b6105898161054a565b840191505092915050565b60008115159050919050565b6105a981610594565b82525050565b600060e0820190506105c4600083018a6104ec565b81810360208301526105d6818961055b565b905081810360408301526105ea818861055b565b90506105f960608301876104ec565b61060660808301866105a0565b81810360a0830152610618818561055b565b905061062760c08301846104ec565b98975050505050505050565b600080fd5b600080fd5b7f4e487b7100000000000000000000000000000000000000000000000000000000600052604160045260246000fd5b6106758261054a565b810181811067ffffffffffffffff821117156106945761069361063d565b5b80604052505050565b60006106a7610475565b90506106b3828261066c565b919050565b600067ffffffffffffffff8211156106d3576106d261063d565b5b6106dc8261054a565b9050602081019050919050565b82818337600083830152505050565b600061070b610706846106b8565b61069d565b90508281526020810184848401111561072757610726610638565b5b6107328482856106e9565b509392505050565b600082601f83011261074f5761074e610633565b5b813561075f8482602086016106f8565b91505092915050565b600080600080608085870312156107825761078161047f565b5b600085013567ffffffffffffffff8111156107a05761079f610484565b5b6107ac8782880161073a565b945050602085013567ffffffffffffffff8111156107cd576107cc610484565b5b6107d98782880161073a565b935050604085013567ffffffffffffffff8111156107fa576107f9610484565b5b6108068782880161073a565b9250506060610817878288016104aa565b91505092959194509250565b600060208201905061083860008301846104ec565b92915050565b7f4e487b7100000000000000000000000000000000000000000000000000000000600052602260045260246000fd5b6000600282049050600182168061088557607f821691505b6020821081036108985761089761083e565b5b50919050565b7f4e487b7100000000000000000000000000000000000000000000000000000000600052601160045260246000fd5b60006108d882610489565b91507fffffffffffffffffffffffffffffffffffffffffffffffffffffffffffffffff820361090a5761090961089e565b5b600182019050919050565b600061092082610489565b915061092b83610489565b92508282101561093e5761093d61089e565b5b82820390509291505056fea2646970667358221220e0bd0e958dfd9f3ee78a8c30ee16427c8a53bf3ecc78cc88c29af5e1dfc56b3664736f6c634300080d0033",
  "immutableReferences": {},
  "source": "// SPDX-License-Identifier: MIT\r\npragma solidity >=0.4.22 < 0.9.0;\r\n\r\ncontract StocksContract {\r\n\r\n    struct Stock {\r\n        uint256 id;\r\n        string symbol;\r\n        string name;\r\n        uint256 price;\r\n        bool isAvailable;\r\n        string eventType; // BUY SELL\r\n        uint256 date;\r\n    }\r\n    uint256 public nextStockId;\r\n\r\n    mapping(uint256 => Stock) public stocks;\r\n\r\n\r\n    function createStock(string memory _symbol, string memory _name, string memory _eventType, uint256 _price) public returns (uint256) {\r\n        Stock memory newStock = Stock(nextStockId, _symbol, _name, _price, true, _eventType, block.timestamp);\r\n        stocks[nextStockId] = newStock;\r\n        nextStockId++;\r\n        return nextStockId - 1; \r\n    }\r\n\r\n    \r\n\r\n}\r\n",
  "sourcePath": "D:\\DESKTOP\\sem-6\\Minor\\webs-new\\TradeVista\\blockchain\\contracts\\StocksContract.sol",
  "compiler": {
    "name": "solc",
    "version": "0.8.13+commit.abaa5c0e.Emscripten.clang"
  },
  "schemaVersion": "3.4.16",
  "updatedAt": "2024-04-29T21:07:01.567Z",
  "networkType": "ethereum",
  "devdoc": {
    "kind": "dev",
    "methods": {},
    "version": 1
  },
  "userdoc": {
    "kind": "user",
    "methods": {},
    "version": 1
  }
}