{
  "contractName": "UsersContract",
  "abi": [
    {
      "inputs": [],
      "stateMutability": "nonpayable",
      "type": "constructor"
    },
    {
      "inputs": [
        {
          "internalType": "uint256",
          "name": "",
          "type": "uint256"
        }
      ],
      "name": "mapIdToUser",
      "outputs": [
        {
          "internalType": "uint256",
          "name": "id",
          "type": "uint256"
        },
        {
          "internalType": "string",
          "name": "name",
          "type": "string"
        },
        {
          "internalType": "string",
          "name": "email",
          "type": "string"
        }
      ],
      "stateMutability": "view",
      "type": "function",
      "constant": true
    },
    {
      "inputs": [],
      "name": "nextUserId",
      "outputs": [
        {
          "internalType": "uint256",
          "name": "",
          "type": "uint256"
        }
      ],
      "stateMutability": "view",
      "type": "function",
      "constant": true
    },
    {
      "inputs": [
        {
          "internalType": "string",
          "name": "_name",
          "type": "string"
        },
        {
          "internalType": "string",
          "name": "_email",
          "type": "string"
        }
      ],
      "name": "createUser",
      "outputs": [
        {
          "internalType": "uint256",
          "name": "",
          "type": "uint256"
        }
      ],
      "stateMutability": "nonpayable",
      "type": "function"
    },
    {
      "inputs": [
        {
          "internalType": "uint256",
          "name": "_id",
          "type": "uint256"
        },
        {
          "internalType": "string",
          "name": "_name",
          "type": "string"
        },
        {
          "internalType": "string",
          "name": "_email",
          "type": "string"
        }
      ],
      "name": "updateUser",
      "outputs": [
        {
          "internalType": "bool",
          "name": "",
          "type": "bool"
        }
      ],
      "stateMutability": "nonpayable",
      "type": "function"
    },
    {
      "inputs": [
        {
          "internalType": "uint256",
          "name": "_id",
          "type": "uint256"
        }
      ],
      "name": "deleteUser",
      "outputs": [
        {
          "internalType": "bool",
          "name": "",
          "type": "bool"
        }
      ],
      "stateMutability": "nonpayable",
      "type": "function"
    },
    {
      "inputs": [
        {
          "internalType": "uint256",
          "name": "_id",
          "type": "uint256"
        }
      ],
      "name": "getUser",
      "outputs": [
        {
          "internalType": "uint256",
          "name": "",
          "type": "uint256"
        },
        {
          "internalType": "string",
          "name": "",
          "type": "string"
        },
        {
          "internalType": "string",
          "name": "",
          "type": "string"
        },
        {
          "internalType": "uint256[]",
          "name": "",
          "type": "uint256[]"
        }
      ],
      "stateMutability": "view",
      "type": "function",
      "constant": true
    },
    {
      "inputs": [
        {
          "internalType": "uint256",
          "name": "_userId",
          "type": "uint256"
        },
        {
          "internalType": "uint256",
          "name": "_stockId",
          "type": "uint256"
        }
      ],
      "name": "addStockToUser",
      "outputs": [
        {
          "internalType": "bool",
          "name": "",
          "type": "bool"
        }
      ],
      "stateMutability": "nonpayable",
      "type": "function"
    },
    {
      "inputs": [],
      "name": "getAllUser",
      "outputs": [
        {
          "internalType": "uint256[]",
          "name": "",
          "type": "uint256[]"
        }
      ],
      "stateMutability": "view",
      "type": "function",
      "constant": true
    }
  ],
  "bytecode": "0x608060405234801561001057600080fd5b506001600081905550611175806100286000396000f3fe608060405234801561001057600080fd5b50600436106100885760003560e01c806387b162b51161005b57806387b162b51461013d578063987dfc001461016d578063a1e6a2551461019d578063b0467deb146101bb57610088565b806338f148451461008d57806347531df8146100bd5780637b7c3a9b146100db5780637c17f1561461010b575b600080fd5b6100a760048036038101906100a29190610a7c565b6101ee565b6040516100b49190610ac4565b60405180910390f35b6100c561028a565b6040516100d29190610b9d565b60405180910390f35b6100f560048036038101906100f09190610d05565b61033f565b6040516101029190610ac4565b60405180910390f35b61012560048036038101906101209190610a7c565b6103d9565b60405161013493929190610e27565b60405180910390f35b61015760048036038101906101529190610e6c565b610513565b6040516101649190610ee4565b60405180910390f35b61018760048036038101906101829190610eff565b61062c565b6040516101949190610ac4565b60405180910390f35b6101a56106be565b6040516101b29190610ee4565b60405180910390f35b6101d560048036038101906101d09190610a7c565b6106c4565b6040516101e59493929190610f3f565b60405180910390f35b600080548210610233576040517f08c379a000000000000000000000000000000000000000000000000000000000815260040161022a90610fe5565b60405180910390fd5b6001600083815260200190815260200160002060008082016000905560018201600061025f91906108e1565b60028201600061026f91906108e1565b60038201600061027f9190610921565b505060019050919050565b60606000600160005461029d9190611034565b67ffffffffffffffff8111156102b6576102b5610bda565b5b6040519080825280602002602001820160405280156102e45781602001602082028036833780820191505090505b5090506000600190505b6000548110156103375780826001836103079190611034565b8151811061031857610317611068565b5b602002602001018181525050808061032f90611097565b9150506102ee565b508091505090565b600080548410610384576040517f08c379a000000000000000000000000000000000000000000000000000000000815260040161037b90610fe5565b60405180910390fd5b6000600160008681526020019081526020016000209050838160010190805190602001906103b3929190610942565b50828160020190805190602001906103cc929190610942565b5060019150509392505050565b60016020528060005260406000206000915090508060000154908060010180546104029061110e565b80601f016020809104026020016040519081016040528092919081815260200182805461042e9061110e565b801561047b5780601f106104505761010080835404028352916020019161047b565b820191906000526020600020905b81548152906001019060200180831161045e57829003601f168201915b5050505050908060020180546104909061110e565b80601f01602080910402602001604051908101604052809291908181526020018280546104bc9061110e565b80156105095780601f106104de57610100808354040283529160200191610509565b820191906000526020600020905b8154815290600101906020018083116104ec57829003601f168201915b5050505050905083565b60008060405180608001604052806000548152602001858152602001848152602001600067ffffffffffffffff8111156105505761054f610bda565b5b60405190808252806020026020018201604052801561057e5781602001602082028036833780820191505090505b5081525090508060016000805481526020019081526020016000206000820151816000015560208201518160010190805190602001906105bf929190610942565b5060408201518160020190805190602001906105dc929190610942565b5060608201518160030190805190602001906105f99291906109c8565b5090505060008081548092919061060f90611097565b919050555060016000546106239190611034565b91505092915050565b600080548310610671576040517f08c379a000000000000000000000000000000000000000000000000000000000815260040161066890610fe5565b60405180910390fd5b600060016000858152602001908152602001600020905080600301839080600181540180825580915050600190039060005260206000200160009091909190915055600191505092915050565b60005481565b60006060806060600054851061070f576040517f08c379a000000000000000000000000000000000000000000000000000000000815260040161070690610fe5565b60405180910390fd5b60016000868152602001908152602001600020600001546001600087815260200190815260200160002060010160016000888152602001908152602001600020600201600160008981526020019081526020016000206003018280546107749061110e565b80601f01602080910402602001604051908101604052809291908181526020018280546107a09061110e565b80156107ed5780601f106107c2576101008083540402835291602001916107ed565b820191906000526020600020905b8154815290600101906020018083116107d057829003601f168201915b505050505092508180546108009061110e565b80601f016020809104026020016040519081016040528092919081815260200182805461082c9061110e565b80156108795780601f1061084e57610100808354040283529160200191610879565b820191906000526020600020905b81548152906001019060200180831161085c57829003601f168201915b50505050509150808054806020026020016040519081016040528092919081815260200182805480156108cb57602002820191906000526020600020905b8154815260200190600101908083116108b7575b5050505050905093509350935093509193509193565b5080546108ed9061110e565b6000825580601f106108ff575061091e565b601f01602090049060005260206000209081019061091d9190610a15565b5b50565b508054600082559060005260206000209081019061093f9190610a15565b50565b82805461094e9061110e565b90600052602060002090601f01602090048101928261097057600085556109b7565b82601f1061098957805160ff19168380011785556109b7565b828001600101855582156109b7579182015b828111156109b657825182559160200191906001019061099b565b5b5090506109c49190610a15565b5090565b828054828255906000526020600020908101928215610a04579160200282015b82811115610a035782518255916020019190600101906109e8565b5b509050610a119190610a15565b5090565b5b80821115610a2e576000816000905550600101610a16565b5090565b6000604051905090565b600080fd5b600080fd5b6000819050919050565b610a5981610a46565b8114610a6457600080fd5b50565b600081359050610a7681610a50565b92915050565b600060208284031215610a9257610a91610a3c565b5b6000610aa084828501610a67565b91505092915050565b60008115159050919050565b610abe81610aa9565b82525050565b6000602082019050610ad96000830184610ab5565b92915050565b600081519050919050565b600082825260208201905092915050565b6000819050602082019050919050565b610b1481610a46565b82525050565b6000610b268383610b0b565b60208301905092915050565b6000602082019050919050565b6000610b4a82610adf565b610b548185610aea565b9350610b5f83610afb565b8060005b83811015610b90578151610b778882610b1a565b9750610b8283610b32565b925050600181019050610b63565b5085935050505092915050565b60006020820190508181036000830152610bb78184610b3f565b905092915050565b600080fd5b600080fd5b6000601f19601f8301169050919050565b7f4e487b7100000000000000000000000000000000000000000000000000000000600052604160045260246000fd5b610c1282610bc9565b810181811067ffffffffffffffff82111715610c3157610c30610bda565b5b80604052505050565b6000610c44610a32565b9050610c508282610c09565b919050565b600067ffffffffffffffff821115610c7057610c6f610bda565b5b610c7982610bc9565b9050602081019050919050565b82818337600083830152505050565b6000610ca8610ca384610c55565b610c3a565b905082815260208101848484011115610cc457610cc3610bc4565b5b610ccf848285610c86565b509392505050565b600082601f830112610cec57610ceb610bbf565b5b8135610cfc848260208601610c95565b91505092915050565b600080600060608486031215610d1e57610d1d610a3c565b5b6000610d2c86828701610a67565b935050602084013567ffffffffffffffff811115610d4d57610d4c610a41565b5b610d5986828701610cd7565b925050604084013567ffffffffffffffff811115610d7a57610d79610a41565b5b610d8686828701610cd7565b9150509250925092565b610d9981610a46565b82525050565b600081519050919050565b600082825260208201905092915050565b60005b83811015610dd9578082015181840152602081019050610dbe565b83811115610de8576000848401525b50505050565b6000610df982610d9f565b610e038185610daa565b9350610e13818560208601610dbb565b610e1c81610bc9565b840191505092915050565b6000606082019050610e3c6000830186610d90565b8181036020830152610e4e8185610dee565b90508181036040830152610e628184610dee565b9050949350505050565b60008060408385031215610e8357610e82610a3c565b5b600083013567ffffffffffffffff811115610ea157610ea0610a41565b5b610ead85828601610cd7565b925050602083013567ffffffffffffffff811115610ece57610ecd610a41565b5b610eda85828601610cd7565b9150509250929050565b6000602082019050610ef96000830184610d90565b92915050565b60008060408385031215610f1657610f15610a3c565b5b6000610f2485828601610a67565b9250506020610f3585828601610a67565b9150509250929050565b6000608082019050610f546000830187610d90565b8181036020830152610f668186610dee565b90508181036040830152610f7a8185610dee565b90508181036060830152610f8e8184610b3f565b905095945050505050565b7f5573657220646f6573206e6f7420657869737400000000000000000000000000600082015250565b6000610fcf601383610daa565b9150610fda82610f99565b602082019050919050565b60006020820190508181036000830152610ffe81610fc2565b9050919050565b7f4e487b7100000000000000000000000000000000000000000000000000000000600052601160045260246000fd5b600061103f82610a46565b915061104a83610a46565b92508282101561105d5761105c611005565b5b828203905092915050565b7f4e487b7100000000000000000000000000000000000000000000000000000000600052603260045260246000fd5b60006110a282610a46565b91507fffffffffffffffffffffffffffffffffffffffffffffffffffffffffffffffff82036110d4576110d3611005565b5b600182019050919050565b7f4e487b7100000000000000000000000000000000000000000000000000000000600052602260045260246000fd5b6000600282049050600182168061112657607f821691505b602082108103611139576111386110df565b5b5091905056fea2646970667358221220e95376171cebb33e5553d6c00a2d51fd5f797f29e27e12dc7aa31a035b809bce64736f6c634300080d0033",
  "immutableReferences": {},
  "source": "// SPDX-License-Identifier: MIT\r\npragma solidity >=0.4.22 < 0.9.0;\r\n\r\nimport \"./StocksContract.sol\";\r\n\r\ncontract UsersContract {\r\n    uint256 public nextUserId;\r\n\r\n    constructor() {\r\n        nextUserId = 1; // Start user IDs from 1\r\n    }\r\n    \r\n    struct User {\r\n        uint256 id;\r\n        string name;\r\n        string email;\r\n        uint256[] ownedStocks;\r\n    }\r\n\r\n    mapping(uint256 => User) public mapIdToUser;\r\n\r\n    function createUser(string memory _name, string memory _email) public returns (uint256) {\r\n        User memory newUser = User(nextUserId, _name, _email, new uint256[](0));\r\n        mapIdToUser[nextUserId] = newUser;\r\n        nextUserId++;\r\n        return nextUserId - 1; // Return the ID of the created user\r\n    }\r\n\r\n    function updateUser(uint256 _id, string memory _name, string memory _email) public returns (bool) {\r\n        require(_id < nextUserId, \"User does not exist\");\r\n        User storage u = mapIdToUser[_id];\r\n        u.name = _name;\r\n        u.email = _email;\r\n        return true;\r\n    }\r\n\r\n    function deleteUser(uint256 _id) public returns (bool) {\r\n        require(_id < nextUserId, \"User does not exist\");\r\n        delete mapIdToUser[_id];\r\n        return true;\r\n    }\r\n\r\n    function getUser(uint256 _id) external view returns (uint256, string memory, string memory, uint256[] memory) {\r\n        require(_id < nextUserId, \"User does not exist\");\r\n        return (mapIdToUser[_id].id, mapIdToUser[_id].name, mapIdToUser[_id].email, mapIdToUser[_id].ownedStocks);\r\n    }\r\n\r\n    function addStockToUser(uint256 _userId, uint256 _stockId) public returns (bool) {\r\n        require(_userId < nextUserId, \"User does not exist\");\r\n\r\n        User storage u = mapIdToUser[_userId];\r\n        u.ownedStocks.push(_stockId);\r\n        return true;\r\n    }\r\n\r\n    function getAllUser() public view returns (uint256[] memory) {\r\n        uint256[] memory allUserIds = new uint256[](nextUserId - 1); // Create a dynamic array to store user IDs\r\n        \r\n        for (uint256 i = 1; i < nextUserId; i++) {\r\n            allUserIds[i - 1] = i; // Populate the array with user IDs starting from 1\r\n        }\r\n        \r\n        return allUserIds;\r\n    }\r\n\r\n}\r\n",
  "sourcePath": "D:\\DESKTOP\\sem-6\\Minor\\webs-new\\TradeVista\\blockchain\\contracts\\UsersContract.sol",
  "compiler": {
    "name": "solc",
    "version": "0.8.13+commit.abaa5c0e.Emscripten.clang"
  },
  "schemaVersion": "3.4.16",
  "updatedAt": "2024-04-29T21:07:01.815Z",
  "networkType": "ethereum",
  "devdoc": {
    "kind": "dev",
    "methods": {},
    "version": 1
  },
  "userdoc": {
    "kind": "user",
    "methods": {},
    "version": 1
  }
}