{
  "contractName": "StocksContract",
  "abi": [
    {
      "inputs": [],
      "payable": false,
      "stateMutability": "nonpayable",
      "type": "constructor"
    },
    {
      "constant": true,
      "inputs": [],
      "name": "nextStockId",
      "outputs": [
        {
          "internalType": "uint256",
          "name": "",
          "type": "uint256"
        }
      ],
      "payable": false,
      "stateMutability": "view",
      "type": "function"
    },
    {
      "constant": true,
      "inputs": [
        {
          "internalType": "uint256",
          "name": "",
          "type": "uint256"
        },
        {
          "internalType": "uint256",
          "name": "",
          "type": "uint256"
        }
      ],
      "name": "stockOwners",
      "outputs": [
        {
          "internalType": "uint256",
          "name": "",
          "type": "uint256"
        }
      ],
      "payable": false,
      "stateMutability": "view",
      "type": "function"
    },
    {
      "constant": true,
      "inputs": [
        {
          "internalType": "uint256",
          "name": "",
          "type": "uint256"
        }
      ],
      "name": "stocks",
      "outputs": [
        {
          "internalType": "uint256",
          "name": "id",
          "type": "uint256"
        },
        {
          "internalType": "string",
          "name": "symbol",
          "type": "string"
        },
        {
          "internalType": "string",
          "name": "name",
          "type": "string"
        },
        {
          "internalType": "uint256",
          "name": "price",
          "type": "uint256"
        },
        {
          "internalType": "bool",
          "name": "isAvailable",
          "type": "bool"
        },
        {
          "internalType": "string",
          "name": "eventType",
          "type": "string"
        },
        {
          "internalType": "uint256",
          "name": "date",
          "type": "uint256"
        }
      ],
      "payable": false,
      "stateMutability": "view",
      "type": "function"
    },
    {
      "constant": false,
      "inputs": [
        {
          "internalType": "string",
          "name": "_symbol",
          "type": "string"
        },
        {
          "internalType": "string",
          "name": "_name",
          "type": "string"
        },
        {
          "internalType": "string",
          "name": "_eventType",
          "type": "string"
        },
        {
          "internalType": "uint256",
          "name": "_price",
          "type": "uint256"
        }
      ],
      "name": "createStock",
      "outputs": [
        {
          "internalType": "uint256",
          "name": "",
          "type": "uint256"
        }
      ],
      "payable": false,
      "stateMutability": "nonpayable",
      "type": "function"
    },
    {
      "constant": false,
      "inputs": [
        {
          "internalType": "uint256",
          "name": "_stockId",
          "type": "uint256"
        },
        {
          "internalType": "uint256[]",
          "name": "_ownerIds",
          "type": "uint256[]"
        }
      ],
      "name": "updateStockOwners",
      "outputs": [
        {
          "internalType": "bool",
          "name": "",
          "type": "bool"
        }
      ],
      "payable": false,
      "stateMutability": "nonpayable",
      "type": "function"
    },
    {
      "constant": true,
      "inputs": [
        {
          "internalType": "uint256",
          "name": "_stockId",
          "type": "uint256"
        }
      ],
      "name": "getStock",
      "outputs": [
        {
          "internalType": "uint256",
          "name": "",
          "type": "uint256"
        },
        {
          "internalType": "string",
          "name": "",
          "type": "string"
        },
        {
          "internalType": "string",
          "name": "",
          "type": "string"
        },
        {
          "internalType": "uint256",
          "name": "",
          "type": "uint256"
        },
        {
          "internalType": "bool",
          "name": "",
          "type": "bool"
        },
        {
          "internalType": "string",
          "name": "",
          "type": "string"
        },
        {
          "internalType": "uint256",
          "name": "",
          "type": "uint256"
        }
      ],
      "payable": false,
      "stateMutability": "view",
      "type": "function"
    }
  ],
  "bytecode": "0x608060405234801561001057600080fd5b5060008055610b6b806100246000396000f3fe608060405234801561001057600080fd5b50600436106100625760003560e01c8063226b876c146100675780633a43d9c5146101e85780633ab7d09a146103aa57806397054750146103c75780639cfe7646146103ea578063be7d7dcc146103f2575b600080fd5b6100846004803603602081101561007d57600080fd5b50356104ae565b604051808881526020018060200180602001878152602001861515151581526020018060200185815260200184810384528a818151815260200191508051906020019080838360005b838110156100e55781810151838201526020016100cd565b50505050905090810190601f1680156101125780820380516001836020036101000a031916815260200191505b5084810383528951815289516020918201918b019080838360005b8381101561014557818101518382015260200161012d565b50505050905090810190601f1680156101725780820380516001836020036101000a031916815260200191505b50848103825286518152865160209182019188019080838360005b838110156101a557818101518382015260200161018d565b50505050905090810190601f1680156101d25780820380516001836020036101000a031916815260200191505b509a505050505050505050505060405180910390f35b610398600480360360808110156101fe57600080fd5b810190602081018135600160201b81111561021857600080fd5b82018360208201111561022a57600080fd5b803590602001918460018302840111600160201b8311171561024b57600080fd5b91908080601f0160208091040260200160405190810160405280939291908181526020018383808284376000920191909152509295949360208101935035915050600160201b81111561029d57600080fd5b8201836020820111156102af57600080fd5b803590602001918460018302840111600160201b831117156102d057600080fd5b91908080601f0160208091040260200160405190810160405280939291908181526020018383808284376000920191909152509295949360208101935035915050600160201b81111561032257600080fd5b82018360208201111561033457600080fd5b803590602001918460018302840111600160201b8311171561035557600080fd5b91908080601f016020809104026020016040519081016040528093929190818152602001838380828437600092019190915250929550509135925061068c915050565b60408051918252519081900360200190f35b610084600480360360208110156103c057600080fd5b5035610776565b610398600480360360408110156103dd57600080fd5b50803590602001356109c6565b6103986109f4565b61049a6004803603604081101561040857600080fd5b81359190810190604081016020820135600160201b81111561042957600080fd5b82018360208201111561043b57600080fd5b803590602001918460208302840111600160201b8311171561045c57600080fd5b9190808060200260200160405190810160405280939291908181526020018383602002808284376000920191909152509295506109fa945050505050565b604080519115158252519081900360200190f35b600160208181526000928352604092839020805481840180548651600296821615610100026000190190911695909504601f8101859004850286018501909652858552909491939290919083018282801561054a5780601f1061051f5761010080835404028352916020019161054a565b820191906000526020600020905b81548152906001019060200180831161052d57829003601f168201915b50505060028085018054604080516020601f60001961010060018716150201909416959095049283018590048502810185019091528181529596959450909250908301828280156105dc5780601f106105b1576101008083540402835291602001916105dc565b820191906000526020600020905b8154815290600101906020018083116105bf57829003601f168201915b505050506003830154600484015460058501805460408051602060026101006001861615026000190190941693909304601f81018490048402820184019092528181529697949660ff90941695509083018282801561067c5780601f106106515761010080835404028352916020019161067c565b820191906000526020600020905b81548152906001019060200180831161065f57829003601f168201915b5050505050908060060154905087565b6000610696610a22565b506040805160e0810182526000805480835260208084018a81528486018a90526060850188905260016080860181905260a086018a90524260c08701529284528282529490922083518155935180519394859490936106f9938501920190610a61565b5060408201518051610715916002840191602090910190610a61565b5060608201516003820155608082015160048201805460ff191691151591909117905560a08201518051610753916005840191602090910190610a61565b5060c0919091015160069091015550506000805460018101909155949350505050565b60006060806000806060600061078a610a22565b600089815260016020818152604092839020835160e0810185528154815281840180548651600296821615610100026000190190911695909504601f810185900485028601850190965285855290949193858401939092908301828280156108335780601f1061080857610100808354040283529160200191610833565b820191906000526020600020905b81548152906001019060200180831161081657829003601f168201915b5050509183525050600282810180546040805160206001841615610100026000190190931694909404601f810183900483028501830190915280845293810193908301828280156108c55780601f1061089a576101008083540402835291602001916108c5565b820191906000526020600020905b8154815290600101906020018083116108a857829003601f168201915b50505091835250506003820154602080830191909152600483015460ff161515604080840191909152600584018054825160026101006001841615026000190190921691909104601f81018590048502820185019093528281526060909401939290919083018282801561097a5780601f1061094f5761010080835404028352916020019161097a565b820191906000526020600020905b81548152906001019060200180831161095d57829003601f168201915b50505091835250506006919091015460209182015281519082015160408301516060840151608085015160a086015160c090960151949f939e50919c509a509850919650945092505050565b600260205281600052604060002081815481106109df57fe5b90600052602060002001600091509150505481565b60005481565b600082815260026020908152604082208351610a1892850190610adf565b5060019392505050565b6040518060e001604052806000815260200160608152602001606081526020016000815260200160001515815260200160608152602001600081525090565b828054600181600116156101000203166002900490600052602060002090601f016020900481019282601f10610aa257805160ff1916838001178555610acf565b82800160010185558215610acf579182015b82811115610acf578251825591602001919060010190610ab4565b50610adb929150610b19565b5090565b828054828255906000526020600020908101928215610acf5791602002820182811115610acf578251825591602001919060010190610ab4565b610b3391905b80821115610adb5760008155600101610b1f565b9056fea265627a7a72315820dbfbf0f47ff692720af1203b93c14268e563b8bdbac1d873f151d362feb3928d64736f6c63430005100032",
  "source": "// SPDX-License-Identifier: SEE LICENSE IN LICENSE\npragma solidity ^0.5.16;\n\ncontract StocksContract {\n    uint256 public nextStockId;\n\n    constructor() public {\n        nextStockId = 0;\n    }\n\n    struct Stock {\n        uint256 id;\n        string symbol;\n        string name;\n        uint256 price;\n        bool isAvailable;\n        string eventType; // BUY SELL\n        uint256 date;\n    }\n\n    mapping(uint256 => Stock) public stocks; // Mapping from stock ID to stock details\n    mapping(uint256 => uint256[]) public stockOwners; // Mapping from stock ID to array of owner user IDs\n\n    function createStock(\n        string memory _symbol,\n        string memory _name,\n        string memory _eventType,\n        uint256 _price\n    ) public returns (uint256) {\n        Stock memory newStock = Stock(\n            nextStockId,\n            _symbol,\n            _name,\n            _price,\n            true,\n            _eventType,\n            block.timestamp\n        );\n        stocks[nextStockId] = newStock;\n        nextStockId++;\n        return nextStockId - 1;\n    }\n\n    function updateStockOwners(\n        uint256 _stockId,\n        uint256[] memory _ownerIds\n    ) public returns (bool) {\n        stockOwners[_stockId] = _ownerIds;\n        return true;\n    }\n\n    function getStock(\n        uint256 _stockId\n    )\n        external\n        view\n        returns (\n            uint256,\n            string memory,\n            string memory,\n            uint256,\n            bool,\n            string memory,\n            uint256\n        )\n    {\n        Stock memory s = stocks[_stockId];\n        return (\n            s.id,\n            s.symbol,\n            s.name,\n            s.price,\n            s.isAvailable,\n            s.eventType,\n            s.date\n        );\n    }\n}\n",
  "sourcePath": "/Users/shivansh/Downloads/TradeVista-master/contracts/StocksContract.sol",
  "compiler": {
    "name": "solc",
    "version": "0.5.16+commit.9c3226ce.Emscripten.clang"
  },
  "schemaVersion": "3.4.16",
  "updatedAt": "2024-04-26T19:29:26.343Z",
  "devdoc": {
    "methods": {}
  },
  "userdoc": {
    "methods": {}
  }
}