{
  "contractName": "UsersContract",
  "abi": [
    {
      "inputs": [
        {
          "internalType": "address",
          "name": "_stocksContractAddress",
          "type": "address"
        }
      ],
      "payable": false,
      "stateMutability": "nonpayable",
      "type": "constructor"
    },
    {
      "constant": true,
      "inputs": [
        {
          "internalType": "uint256",
          "name": "",
          "type": "uint256"
        }
      ],
      "name": "mapIdToUser",
      "outputs": [
        {
          "internalType": "uint256",
          "name": "id",
          "type": "uint256"
        },
        {
          "internalType": "string",
          "name": "name",
          "type": "string"
        },
        {
          "internalType": "string",
          "name": "email",
          "type": "string"
        }
      ],
      "payable": false,
      "stateMutability": "view",
      "type": "function"
    },
    {
      "constant": true,
      "inputs": [],
      "name": "nextUserId",
      "outputs": [
        {
          "internalType": "uint256",
          "name": "",
          "type": "uint256"
        }
      ],
      "payable": false,
      "stateMutability": "view",
      "type": "function"
    },
    {
      "constant": false,
      "inputs": [
        {
          "internalType": "string",
          "name": "_name",
          "type": "string"
        },
        {
          "internalType": "string",
          "name": "_email",
          "type": "string"
        }
      ],
      "name": "createUser",
      "outputs": [
        {
          "internalType": "uint256",
          "name": "",
          "type": "uint256"
        }
      ],
      "payable": false,
      "stateMutability": "nonpayable",
      "type": "function"
    },
    {
      "constant": false,
      "inputs": [
        {
          "internalType": "uint256",
          "name": "_id",
          "type": "uint256"
        },
        {
          "internalType": "string",
          "name": "_name",
          "type": "string"
        },
        {
          "internalType": "string",
          "name": "_email",
          "type": "string"
        }
      ],
      "name": "updateUser",
      "outputs": [
        {
          "internalType": "bool",
          "name": "",
          "type": "bool"
        }
      ],
      "payable": false,
      "stateMutability": "nonpayable",
      "type": "function"
    },
    {
      "constant": false,
      "inputs": [
        {
          "internalType": "uint256",
          "name": "_id",
          "type": "uint256"
        }
      ],
      "name": "deleteUser",
      "outputs": [
        {
          "internalType": "bool",
          "name": "",
          "type": "bool"
        }
      ],
      "payable": false,
      "stateMutability": "nonpayable",
      "type": "function"
    },
    {
      "constant": true,
      "inputs": [
        {
          "internalType": "uint256",
          "name": "_id",
          "type": "uint256"
        }
      ],
      "name": "getUser",
      "outputs": [
        {
          "internalType": "uint256",
          "name": "",
          "type": "uint256"
        },
        {
          "internalType": "string",
          "name": "",
          "type": "string"
        },
        {
          "internalType": "string",
          "name": "",
          "type": "string"
        },
        {
          "internalType": "uint256[]",
          "name": "",
          "type": "uint256[]"
        }
      ],
      "payable": false,
      "stateMutability": "view",
      "type": "function"
    },
    {
      "constant": false,
      "inputs": [
        {
          "internalType": "uint256",
          "name": "_userId",
          "type": "uint256"
        },
        {
          "internalType": "uint256",
          "name": "_stockId",
          "type": "uint256"
        }
      ],
      "name": "buyStock",
      "outputs": [
        {
          "internalType": "bool",
          "name": "",
          "type": "bool"
        }
      ],
      "payable": false,
      "stateMutability": "nonpayable",
      "type": "function"
    },
    {
      "constant": false,
      "inputs": [
        {
          "internalType": "uint256",
          "name": "_userId",
          "type": "uint256"
        },
        {
          "internalType": "uint256",
          "name": "_stockId",
          "type": "uint256"
        }
      ],
      "name": "sellStock",
      "outputs": [
        {
          "internalType": "bool",
          "name": "",
          "type": "bool"
        }
      ],
      "payable": false,
      "stateMutability": "nonpayable",
      "type": "function"
    }
  ],
  "bytecode": "0x608060405234801561001057600080fd5b5060405161134b38038061134b8339818101604052602081101561003357600080fd5b50516001600081905580546001600160a01b039092166001600160a01b03199092169190911790556112e18061006a6000396000f3fe608060405234801561001057600080fd5b50600436106100885760003560e01c806387b162b51161005b57806387b162b514610313578063a1e6a2551461044e578063b0467deb14610456578063b9303dbd1461059957610088565b806338f148451461008d57806351c181a3146100be5780637b7c3a9b146100e15780637c17f15614610211575b600080fd5b6100aa600480360360208110156100a357600080fd5b50356105bc565b604080519115158252519081900360200190f35b6100aa600480360360408110156100d457600080fd5b508035906020013561064e565b6100aa600480360360608110156100f757600080fd5b81359190810190604081016020820135600160201b81111561011857600080fd5b82018360208201111561012a57600080fd5b803590602001918460018302840111600160201b8311171561014b57600080fd5b91908080601f0160208091040260200160405190810160405280939291908181526020018383808284376000920191909152509295949360208101935035915050600160201b81111561019d57600080fd5b8201836020820111156101af57600080fd5b803590602001918460018302840111600160201b831117156101d057600080fd5b91908080601f016020809104026020016040519081016040528093929190818152602001838380828437600092019190915250929550610859945050505050565b61022e6004803603602081101561022757600080fd5b50356108ee565b604051808481526020018060200180602001838103835285818151815260200191508051906020019080838360005b8381101561027557818101518382015260200161025d565b50505050905090810190601f1680156102a25780820380516001836020036101000a031916815260200191505b50838103825284518152845160209182019186019080838360005b838110156102d55781810151838201526020016102bd565b50505050905090810190601f1680156103025780820380516001836020036101000a031916815260200191505b509550505050505060405180910390f35b61043c6004803603604081101561032957600080fd5b810190602081018135600160201b81111561034357600080fd5b82018360208201111561035557600080fd5b803590602001918460018302840111600160201b8311171561037657600080fd5b91908080601f0160208091040260200160405190810160405280939291908181526020018383808284376000920191909152509295949360208101935035915050600160201b8111156103c857600080fd5b8201836020820111156103da57600080fd5b803590602001918460018302840111600160201b831117156103fb57600080fd5b91908080601f016020809104026020016040519081016040528093929190818152602001838380828437600092019190915250929550610a25945050505050565b60408051918252519081900360200190f35b61043c610aff565b6104736004803603602081101561046c57600080fd5b5035610b05565b60405180858152602001806020018060200180602001848103845287818151815260200191508051906020019080838360005b838110156104be5781810151838201526020016104a6565b50505050905090810190601f1680156104eb5780820380516001836020036101000a031916815260200191505b50848103835286518152865160209182019188019080838360005b8381101561051e578181015183820152602001610506565b50505050905090810190601f16801561054b5780820380516001836020036101000a031916815260200191505b508481038252855181528551602091820191808801910280838360005b83811015610580578181015183820152602001610568565b5050505090500197505050505050505060405180910390f35b6100aa600480360360408110156105af57600080fd5b5080359060200135610cf0565b600080548210610609576040805162461bcd60e51b8152602060048201526013602482015272155cd95c88191bd95cc81b9bdd08195e1a5cdd606a1b604482015290519081900360640190fd5b6000828152600260205260408120818155906106286001830182611125565b610636600283016000611125565b61064460038301600061116c565b5060019392505050565b60008054831061069b576040805162461bcd60e51b8152602060048201526013602482015272155cd95c88191bd95cc81b9bdd08195e1a5cdd606a1b604482015290519081900360640190fd5b6000838152600260205260408120906003820190805b825481101561074b57858382815481106106c757fe5b906000526020600020015414156107435782546001925060001901811461071e578254839060001981019081106106fa57fe5b906000526020600020015483828154811061071157fe5b6000918252602090912001555b8280548061072857fe5b6001900381819060005260206000200160009055905561074b565b6001016106b1565b50806107885760405162461bcd60e51b81526004018080602001828103825260258152602001806112886025913960400191505060405180910390fd5b60015460408051632f9f5f7360e21b81526004810188815260248201928352600387018054604484018190526001600160a01b039095169463be7d7dcc948b9492939290916064909101908490801561080057602002820191906000526020600020905b8154815260200190600101908083116107ec575b50509350505050602060405180830381600087803b15801561082157600080fd5b505af1158015610835573d6000803e3d6000fd5b505050506040513d602081101561084b57600080fd5b506001979650505050505050565b6000805484106108a6576040805162461bcd60e51b8152602060048201526013602482015272155cd95c88191bd95cc81b9bdd08195e1a5cdd606a1b604482015290519081900360640190fd5b6000848152600260209081526040909120845190916108cc91600184019187019061118a565b5082516108e2906002830190602086019061118a565b50600195945050505050565b60026020818152600092835260409283902080546001808301805487519281161561010002600019011695909504601f81018590048502820185019096528581529094919390929091908301828280156109895780601f1061095e57610100808354040283529160200191610989565b820191906000526020600020905b81548152906001019060200180831161096c57829003601f168201915b50505060028085018054604080516020601f6000196101006001871615020190941695909504928301859004850281018501909152818152959695945090925090830182828015610a1b5780601f106109f057610100808354040283529160200191610a1b565b820191906000526020600020905b8154815290600101906020018083116109fe57829003601f168201915b5050505050905083565b6000610a2f611208565b604051806080016040528060005481526020018581526020018481526020016000604051908082528060200260200182016040528015610a79578160200160208202803883390190505b5090526000805481526002602090815260409091208251815581830151805193945084939192610ab19260018501929091019061118a565b5060408201518051610acd91600284019160209091019061118a565b5060608201518051610ae9916003840191602090910190611230565b5050600080546001810190915595945050505050565b60005481565b600060608060606000548510610b58576040805162461bcd60e51b8152602060048201526013602482015272155cd95c88191bd95cc81b9bdd08195e1a5cdd606a1b604482015290519081900360640190fd5b600085815260026020818152604092839020805460018083018054875192811615610100026000190116869004601f81018690048602830186019097528682529195919483019360039093019290918591830182828015610bfa5780601f10610bcf57610100808354040283529160200191610bfa565b820191906000526020600020905b815481529060010190602001808311610bdd57829003601f168201915b5050855460408051602060026001851615610100026000190190941693909304601f810184900484028201840190925281815295985087945092508401905082828015610c885780601f10610c5d57610100808354040283529160200191610c88565b820191906000526020600020905b815481529060010190602001808311610c6b57829003601f168201915b5050505050915080805480602002602001604051908101604052809291908181526020018280548015610cda57602002820191906000526020600020905b815481526020019060010190808311610cc6575b5050505050905093509350935093509193509193565b600080548310610d3d576040805162461bcd60e51b8152602060048201526013602482015272155cd95c88191bd95cc81b9bdd08195e1a5cdd606a1b604482015290519081900360640190fd5b60015460408051631d5be84d60e11b81526004810185905290516000926001600160a01b031691633ab7d09a9160248083019286929190829003018186803b158015610d8857600080fd5b505afa158015610d9c573d6000803e3d6000fd5b505050506040513d6000823e601f3d908101601f1916820160405260e0811015610dc557600080fd5b815160208301805160405192949293830192919084600160201b821115610deb57600080fd5b908301906020820185811115610e0057600080fd5b8251600160201b811182820188101715610e1957600080fd5b82525081516020918201929091019080838360005b83811015610e46578181015183820152602001610e2e565b50505050905090810190601f168015610e735780820380516001836020036101000a031916815260200191505b5060405260200180516040519392919084600160201b821115610e9557600080fd5b908301906020820185811115610eaa57600080fd5b8251600160201b811182820188101715610ec357600080fd5b82525081516020918201929091019080838360005b83811015610ef0578181015183820152602001610ed8565b50505050905090810190601f168015610f1d5780820380516001836020036101000a031916815260200191505b50604081815260208301519083015160609093018051919593949293929184600160201b821115610f4d57600080fd5b908301906020820185811115610f6257600080fd5b8251600160201b811182820188101715610f7b57600080fd5b82525081516020918201929091019080838360005b83811015610fa8578181015183820152602001610f90565b50505050905090810190601f168015610fd55780820380516001836020036101000a031916815260200191505b506040525092975087965061103195505050505050576040805162461bcd60e51b815260206004820152601660248201527553746f636b206973206e6f7420617661696c61626c6560501b604482015290519081900360640190fd5b6000848152600260209081526040808320600381018054600181810183558287529490952090940187905591548151632f9f5f7360e21b8152600481018881526024820193845285546044830181905294956001600160a01b039093169463be7d7dcc948a94939091606490910190849080156110cd57602002820191906000526020600020905b8154815260200190600101908083116110b9575b50509350505050602060405180830381600087803b1580156110ee57600080fd5b505af1158015611102573d6000803e3d6000fd5b505050506040513d602081101561111857600080fd5b5060019695505050505050565b50805460018160011615610100020316600290046000825580601f1061114b5750611169565b601f016020900490600052602060002090810190611169919061126a565b50565b5080546000825590600052602060002090810190611169919061126a565b828054600181600116156101000203166002900490600052602060002090601f016020900481019282601f106111cb57805160ff19168380011785556111f8565b828001600101855582156111f8579182015b828111156111f85782518255916020019190600101906111dd565b5061120492915061126a565b5090565b6040518060800160405280600081526020016060815260200160608152602001606081525090565b8280548282559060005260206000209081019282156111f857916020028201828111156111f85782518255916020019190600101906111dd565b61128491905b808211156112045760008155600101611270565b9056fe5573657220646f6573206e6f74206f776e20746865207370656369666965642073746f636ba265627a7a72315820d701af3a315a60d85f9b05ecbde70324f791cf0538b565ae8ee95ea571b34c7f64736f6c63430005100032",
  "source": "// SPDX-License-Identifier: SEE LICENSE IN LICENSE\r\npragma solidity ^0.5.16;\r\n\r\nimport \"./StocksContract.sol\";\r\n\r\ncontract UsersContract {\r\n    uint256 public nextUserId;\r\n    StocksContract stocksContract; // Instance of StocksContract\r\n\r\n    constructor(address _stocksContractAddress) public {\r\n        nextUserId = 1; // Start user IDs from 1\r\n        stocksContract = StocksContract(_stocksContractAddress); // Initialize instance of StocksContract\r\n    }\r\n\r\n    struct User {\r\n        uint256 id;\r\n        string name;\r\n        string email;\r\n        uint256[] ownedStocks;\r\n    }\r\n\r\n    mapping(uint256 => User) public mapIdToUser;\r\n\r\n    function createUser(\r\n        string memory _name,\r\n        string memory _email\r\n    ) public returns (uint256) {\r\n        User memory newUser = User(nextUserId, _name, _email, new uint256[](0));\r\n        mapIdToUser[nextUserId] = newUser;\r\n        nextUserId++;\r\n        return nextUserId - 1; // Return the ID of the created user\r\n    }\r\n\r\n    function updateUser(\r\n        uint256 _id,\r\n        string memory _name,\r\n        string memory _email\r\n    ) public returns (bool) {\r\n        require(_id < nextUserId, \"User does not exist\");\r\n        User storage u = mapIdToUser[_id];\r\n        u.name = _name;\r\n        u.email = _email;\r\n        return true;\r\n    }\r\n\r\n    function deleteUser(uint256 _id) public returns (bool) {\r\n        require(_id < nextUserId, \"User does not exist\");\r\n        delete mapIdToUser[_id];\r\n        return true;\r\n    }\r\n\r\n    function getUser(\r\n        uint256 _id\r\n    )\r\n        external\r\n        view\r\n        returns (uint256, string memory, string memory, uint256[] memory)\r\n    {\r\n        require(_id < nextUserId, \"User does not exist\");\r\n        return (\r\n            mapIdToUser[_id].id,\r\n            mapIdToUser[_id].name,\r\n            mapIdToUser[_id].email,\r\n            mapIdToUser[_id].ownedStocks\r\n        );\r\n    }\r\n\r\n    function buyStock(uint256 _userId, uint256 _stockId) public returns (bool) {\r\n        require(_userId < nextUserId, \"User does not exist\");\r\n        (, , , , bool isAvailable, , ) = stocksContract.getStock(_stockId);\r\n        require(isAvailable, \"Stock is not available\");\r\n\r\n        User storage user = mapIdToUser[_userId];\r\n        user.ownedStocks.push(_stockId);\r\n\r\n        stocksContract.updateStockOwners(_stockId, user.ownedStocks);\r\n\r\n        return true;\r\n    }\r\n\r\n    function sellStock(\r\n        uint256 _userId,\r\n        uint256 _stockId\r\n    ) public returns (bool) {\r\n        require(_userId < nextUserId, \"User does not exist\");\r\n\r\n        User storage user = mapIdToUser[_userId];\r\n        uint256[] storage userStocks = user.ownedStocks;\r\n        bool found = false;\r\n        for (uint256 i = 0; i < userStocks.length; i++) {\r\n            if (userStocks[i] == _stockId) {\r\n                found = true;\r\n                // Remove the sold stock from the user's owned stocks array\r\n                if (i != userStocks.length - 1) {\r\n                    userStocks[i] = userStocks[userStocks.length - 1];\r\n                }\r\n                userStocks.pop();\r\n                break;\r\n            }\r\n        }\r\n        require(found, \"User does not own the specified stock\");\r\n\r\n        stocksContract.updateStockOwners(_stockId, user.ownedStocks);\r\n\r\n        return true;\r\n    }\r\n}\r\n",
  "sourcePath": "D:\\TV_2.O\\contracts\\UsersContract.sol",
  "compiler": {
    "name": "solc",
    "version": "0.5.16+commit.9c3226ce.Emscripten.clang"
  },
  "schemaVersion": "3.4.16",
  "updatedAt": "2024-04-24T10:25:35.720Z",
  "networkType": "ethereum",
  "devdoc": {
    "methods": {}
  },
  "userdoc": {
    "methods": {}
  }
}